:100000000C9404020C942C020C942C020C942C02E0
:100010000C942C020C942C020C942C020C942C02A8
:100020000C942C020C942C020C942C020C942C0298
:100030000C942C020C942C020C942C020C942C0288
:100040000C947C0F0C942C020C944A0F0C94240FEB
:100050000C942C020C942C020C942C020C942C0268
:100060000C942C020C942C023D20313620626974D1
:1000700073003D2038206269747300206F70656ED4
:100080002000636C6F736564003D20416C6C6F777A
:100090006564003D20456E61626C6564003D2044EE
:1000A000697361626C6564003D2050415F4D415849
:1000B000003D2050415F48494748003D2050415F86
:1000C0004C4F57003D2050415F4D494E003D20327E
:1000D0003530204B425053003D2032204D4250538A
:1000E000003D2031204D4250530000000008000226
:1000F00001000003040700000000000000000001F0
:10010000020304050A0B0C0D0E0F0D0A00203078B7
:1001100025303278002553093D0000007069706574
:10012000202575202825532920626F756E640054A0
:1001300058206164647265737309005072696D615F
:100140007279204D6F646509093D202563580D0AB9
:10015000004175746F2041636B6E6F776C656467E7
:100160006D656E74093D2030622563256325632526
:1001700063256325630D0A004175746F2041636B2D
:100180006E6F776C6564676D656E740925530D0A33
:100190000044796E616D6963205061796C6F6164B0
:1001A000730925530D0A00437573746F6D20414325
:1001B0004B205061796C6F61640925530D0A004D25
:1001C000756C746963617374090925530D0A0052D3
:1001D0006574727920617474656D707473206D61DB
:1001E000646520666F720A202020206C6173742081
:1001F0007472616E736D697373696F6E093D20254A
:10020000640D0A005061636B657473206C6F7374C6
:10021000206F6E0A2020202063757272656E742034
:100220006368616E6E656C093D2025640D0A0041AE
:1002300075746F20526574727920417474656D70A5
:100240007473093D202564206D6178696D756D0DAD
:100250000A004175746F2052657472792044656C90
:100260006179093D202564206D6963726F73656350
:100270006F6E64730D0A005374617469632050617A
:10028000796C6F6164204C656E677468093D202548
:10029000642062797465730D0A0041646472657349
:1002A00073204C656E67746809093D2025642062DF
:1002B000797465730D0A00435243204C656E677470
:1002C00068090925530D0A009D0072006800524616
:1002D000204C6F77204E6F69736520416D706C699B
:1002E000666965720925530D0A009D009300890017
:1002F00082007B00524620506F77657220416D70FE
:100300006C69666965720925530D0A00C400BB005B
:10031000B100A800524620446174612052617465A6
:10032000090925530D0A00E100D800CD004368619A
:100330006E6E656C0909093D20257520287E2025F3
:1003400075204D487A290D0A0053504920467265A0
:100350007175656E637909093D202564204D687AC1
:100360000A00534C41564520524632342F6578617D
:100370006D706C65732F47657474696E6753746133
:100380007274656400726164696F20686172647779
:10039000617265206973206E6F7420726573706F6F
:1003A0006E64696E67212100206661696C65642E48
:1003B00000206F6B2E003A2000000000002500286E
:1003C000002B0000000000240027002A0004040481
:1003D00004040404040202020202020303030303EE
:1003E00003010204081020408001020408102001CB
:1003F00002040810200D0A002530327800203078E1
:10040000002553093D00C60F11241FBECFEFD8E0D1
:10041000DEBFCDBF11E0A0E0B1E0EEE3F6E302C045
:1004200005900D92A036B107D9F724E0A0E6B1E01F
:1004300001C01D92A133B207E1F712E0C4E0D2E09F
:1004400004C02197FE010E94FC1AC330D107C9F7EE
:100450000E9435100C941D1B0C940000CF93DF9369
:10046000CDB7DEB728970FB6F894DEBF0FBECDBF6D
:10047000AC019CEC99839A839B839C839D831E8211
:100480001F8218869A01E1E021153105C9F061113A
:1004900003C04115510569F4D901A770BB27A85FB6
:1004A000BE4F8C91A1E0B0E0AC0FBD1FAE0FB11DEF
:1004B0008C9383E0369527958A95E1F7EF5FE4CF3B
:1004C000611102C0452BB9F4E62FF0E0E85FFE4F62
:1004D0008081898329813A814B815C816D817E8114
:1004E0008F81988528960FB6F894DEBF0FBECDBFDA
:1004F000DF91CF910895F0E0E95FFE4F80818A831C
:10050000E9CF90E0FC01EF51FC4F249183539C4FC5
:10051000FC018491882399F090E0880F991FFC01D9
:10052000ED53FC4FA591B491FC01E754FC4F85912C
:1005300094918FB7F894EC91E22BEC938FBF0895D0
:10054000FC01408151818281823038F081E08383D7
:1005500080E0518340838283089520910604309186
:100560000704B901642375238091C6029091C702E4
:100570006817790739F04091030450910404809181
:100580000504E7CFC9018095909563E0880F991F16
:100590006A95E1F784239523892B41F083E0220FAC
:1005A000331F8A95E1F727604223532385E0D1CF9B
:1005B0008230910538F0880F991F880F991F059791
:1005C0000197F1F70895AF92BF92CF92DF92EF9229
:1005D000FF920F931F93CF93DF936C017B018B01ED
:1005E000040F151FEB015E01AE18BF08C017D1073D
:1005F00059F06991D601ED91FC910190F081E02DC7
:10060000C6010995892B79F7C501DF91CF911F911B
:100610000F91FF90EF90DF90CF90BF90AF90089533
:10062000FC01538D448D252F30E0842F90E0821BF8
:10063000930B541710F0CF96089501970895FC017D
:10064000918D828D981761F0A28DAE0FBF2FB11DD5
:100650005D968C91928D9F5F9F73928F90E008952D
:100660008FEF9FEF0895FC01918D828D981731F0E7
:10067000828DE80FF11D858D90E008958FEF9FEF3B
:100680000895FC01918D228D892F90E0805C9F4F11
:10069000821B91098F73992708958DEF91E00E9435
:1006A000410321E0892B09F420E0822F089580E0A6
:1006B00090E0892B29F00E944D0381110C940000D9
:1006C0000895FC01A48DA80FB92FB11DA35ABF4FE7
:1006D0002C91848D90E001968F739927848FA68941
:1006E000B7892C93A089B1898C91837080648C9395
:1006F000938D848D981306C00288F389E02D808144
:100700008F7D80830895EF92FF920F931F93CF9375
:10071000DF93EC0181E0888F9B8D8C8D98131AC03C
:10072000E889F989808185FF15C09FB7F894EE8923
:10073000FF896083E889F989808183708064808380
:100740009FBF81E090E0DF91CF911F910F91FF90CB
:10075000EF900895F62E0B8D10E00F5F1F4F0F7373
:100760001127E02E8C8D8E110CC00FB607FCFACF2E
:10077000E889F989808185FFF5CFCE010E94610368
:10078000F1CFEB8DEC0FFD2FF11DE35AFF4FF082FF
:100790009FB7F8940B8FEA89FB8980818062CFCF65
:1007A0000F931F93CF93DF938C01D0E0C0E0F8014B
:1007B000EC0FFD1F6491662341F08DEF91E00E94E4
:1007C0008303892B11F02196F2CFCE01DF91CF91D7
:1007D0001F910F910895CF93DF93EC01888D8823AB
:1007E000B9F0AA89BB89E889F9898C9185FD03C094
:1007F000808186FD0DC00FB607FCF7CF8C9185FF79
:10080000F2CF808185FFEDCFCE010E946103E9CF59
:10081000DF91CF91089590E0FC01E651FF4F2491C4
:10082000FC01EF51FC4F3491FC01E353FC4FE49188
:10083000EE23C9F0222339F0233001F1A8F421304E
:1008400019F1223029F1F0E0EE0FFF1FE754FC4FC1
:10085000A591B4918FB7F894EC91611126C03095B1
:100860003E233C938FBF08952730A9F02830C9F06C
:10087000243049F7809180008F7D03C080918000F3
:100880008F7780938000DFCF84B58F7784BDDBCFF7
:1008900084B58F7DFBCF8091B0008F778093B000BF
:1008A000D2CF8091B0008F7DF9CF3E2BDACF3FB70A
:1008B000F8948091650190916601A0916701B091D3
:1008C000680126B5A89B05C02F3F19F00196A11D10
:1008D000B11D3FBFBA2FA92F982F8827BC01CD018A
:1008E000620F711D811D911D42E0660F771F881FE9
:1008F000991F4A95D1F708958F929F92AF92BF9218
:10090000CF92DF92EF92FF926B017C010E9457041D
:100910004B015C01C114D104E104F104B9F00E945F
:100920005704681979098A099B09683E7340810553
:10093000910580F321E0C21AD108E108F10888EEA0
:10094000880E83E0981EA11CB11CE4CFFF90EF90AD
:10095000DF90CF90BF90AF909F908F9008952FB76A
:10096000F8946091610170916201809163019091AE
:1009700064012FBF089520E0009761F0382F377091
:100980003150353060F433E0969587953A95E1F72C
:100990002F5FF2CF81E0253008F080E0089580E0FD
:1009A000FACFFC0121813281838194812817390794
:1009B00019F0822F0C940B040895CF93DF93EC0170
:1009C0008B810E940B048B8D9C8DDF91CF910C94B9
:1009D000D80261E00C94DD0460E00C94DD0488E052
:1009E00094E00E94EC0443985B9A329B4BC080E8F1
:1009F0005B98439A5B9A329980645B9843985B9AC0
:100A0000329980625B98439A5B9A329980615B98D5
:100A100043985B9A329988605B9843985B9A3299C5
:100A200084605B9843985B9A329982605B984398A4
:100A30005B9A329981605B988093110443985B9A2A
:100A400086B15B98439A5B9A86B15B98439A5B9AAE
:100A500086B15B98439A5B9A86B15B9843985B9AA0
:100A600086B15B9843985B9A86B15B98439A5B9A90
:100A700086B15B98439A5B9A86B15B9888E094E074
:100A80000C94E90480E0B4CF4F925F926F927F9212
:100A90008F929F92AF92BF92CF92DF92EF92FF928E
:100AA0000F931F93CF93DF933C01542E862F8062C8
:100AB000882E912C5401AA0CAB2CAA1CBB086401F3
:100AC00046E0D594C7944A95E1F7740154E0F59453
:100AD000E7945A95E1F7840173E0159507957A95A7
:100AE000E1F7E401D595C795D595C7959594879479
:100AF0006170462EC301222309F45FC00E94EC04FA
:100B0000AB2809F44AC0439A5B9A329948C080E006
:100B10005B98C0FE46C0439A5B9A329980645B98AA
:100B2000439A5B9A329980625B98E0FE3CC0439A9C
:100B30005B9A329980615B9800FF37C0439A5B9A59
:100B4000329988605B98C0FF32C0439A5B9A3299B1
:100B500084605B9880FE2DC0439A5B9A32998260D4
:100B60005B98442041F1439A5B9A329981605B988B
:100B7000F3018187C301DF91CF911F910F91FF9006
:100B8000EF90DF90CF90BF90AF909F908F907F902D
:100B90006F905F904F900C94E9044398B5CF80E834
:100BA000B7CF4398B9CF4398C3CF4398C8CF4398A2
:100BB000CDCF4398D2CF4398D7CF0E94EC04AB2837
:100BC00009F471C0439A5B9A32996FC080E05B98D8
:100BD000C0FE6DC0439A5B9A329980645B98439AD9
:100BE0005B9A329980625B98E0FE63C0439A5B9A9D
:100BF000329980615B9800FF5EC0439A5B9A32999C
:100C000088605B98C0FF59C0439A5B9A32998460B0
:100C10005B9880FE54C0439A5B9A329982605B98DD
:100C2000442009F44EC0439A5B9A329981605B98E4
:100C3000F3018187852D90E09C01220F232F221F35
:100C4000330B232B09F43FC0439A5B9A26B15B9880
:100C500086FF3BC0439A5B9A26B15B9885FF37C0FD
:100C6000439A5B9A26B15B9884FF33C0439A5B9AA0
:100C700026B15B9883FF2FC0439A5B9A26B15B989D
:100C800082FF2BC0439A5B9A96B15B9881FF27C085
:100C9000439A5B9A86B15B9850FE23C0439A5B9A55
:100CA00086B15B9867CF43988ECF80E890CF43980A
:100CB00092CF43989CCF4398A1CF4398A6CF439817
:100CC000ABCF4398B1CF4398C0CF4398C4CF43989C
:100CD000C8CF4398CCCF4398D0CF4398D4CF439834
:100CE000D8CF4398DCCFFC01408941FD0AC0426067
:100CF000408B20E060E00E9444058BE19EE4019778
:100D0000F1F70895CF93DF93EC0121E04FEF61EE0F
:100D10000E9444058985DF91CF910895EF92FF925B
:100D20000F931F93CF93DF93EC01062F7A01122FBD
:100D30000E94EC04202F206230E0C901880F892F27
:100D4000881F990B892B09F473C0439A5B9A3299D7
:100D500071C080E05B9826FF6FC0439A5B9A32991E
:100D600080645B98439A5B9A329980625B9824FF17
:100D700065C0439A5B9A329980615B9823FF60C09B
:100D8000439A5B9A329988605B9822FF5BC0439AD2
:100D90005B9A329984605B9821FF56C0439A5B9AB4
:100DA000329982605B9800FF51C0439A5B9A3299F6
:100DB00081605B988987F701115008F459C08191CF
:100DC000282F30E0220F232F221F330B232B09F46F
:100DD0003FC0439A5B9A96B15B9886FF3BC0439AAB
:100DE0005B9A96B15B9885FF37C0439A5B9A96B140
:100DF0005B9884FF33C0439A5B9A96B15B9883FFFC
:100E00002FC0439A5B9A96B15B9882FF2BC0439A9E
:100E10005B9A96B15B9881FF27C0439A5B9A96B123
:100E20005B9880FF23C0439A5B9A86B15B98C4CFDE
:100E300043988CCF80E88ECF439890CF43989ACF39
:100E400043989FCF4398A4CF4398A9CF4398AECF60
:100E50004398C0CF4398C4CF4398C8CF4398CCCFD2
:100E60004398D0CF4398D4CF4398D8CF4398DCCF82
:100E7000CE01DF91CF911F910F91FF90EF900C94D5
:100E8000E9040F931F93CF938C01C62F0E94EC04AB
:100E90002C2F30E0C901880F892F881F990B892BCF
:100EA00009F46AC0439A5B9A329B68C080E85B98F9
:100EB00026FF66C0439A5B9A329980645B9825FF4F
:100EC00061C0439A5B9A329980625B9824FF5CC050
:100ED000439A5B9A329980615B9823FF57C0439A8B
:100EE0005B9A329988605B9822FF52C0439A5B9A62
:100EF000329984605B9821FF4DC0439A5B9A329986
:100F000082605B98C0FF48C0439A5B9A32998160C7
:100F10005B98F8018187439A5B9A329B3FC0C0E897
:100F20005B98439A5B9A3299C0645B98439A5B9A48
:100F30003299C0625B98439A5B9A3299C0615B9820
:100F4000439A5B9A3299C8605B98439A5B9A32994C
:100F5000C4605B98439A5B9A3299C2605B98439AEB
:100F60005B9A3299C1605B98C8010E94E9048C2F9A
:100F7000CF911F910F910895439895CF80E097CF1F
:100F8000439899CF43989ECF4398A3CF4398A8CF37
:100F90004398ADCF4398B2CF4398B7CFC0E0C0CF0E
:100FA0001F93CF93DF93EC01162F61E00E9441075E
:100FB000112359F0182F116020E0412F61E0CE017C
:100FC000DF91CF911F910C944405182F1E7F8B89C0
:100FD000882391F36DE1CE010E944107482F4D6FA8
:100FE00020E06DE1CE010E9444051B8AE5CFCF933E
:100FF000DF93EC0160E00E94D1048F89988D0E94FC
:10100000D8028B89882319F0CE010E948206488974
:101010004E7F488B20E060E0CE010E94440562E0F4
:10102000CE010E944107EEEFF0E0E49141E050E094
:1010300001C0440FEA95EAF7482B20E062E0CE01B8
:10104000DF91CF910C944405CF93DF93EC010E9484
:10105000730648894160488B20E060E0CE010E9421
:10106000440520E040E767E0CE010E94440561E0CE
:10107000CE010E94D1048A89882351F0AE01455FD8
:101080005F4F2C896AE0CE01DF91CF910C948E06E0
:1010900062E0CE010E944107EEEFF0E0E49121E032
:1010A00030E001C0220FEA95EAF72095422F48234D
:1010B00020E062E0CE010E9444051A8ADF91CF91C0
:1010C0000895CF93C82F682F8DEF91E00E9483037E
:1010D0008C2FCC0F990BCF910895EF92FF920F9325
:1010E0001F93CF93DF93D62F9F938F9381E094E04C
:1010F0009F938F930E94A416C0911C048C2F90E0A4
:101100000E94BF188C0188E094E00E94EC042D2F0F
:1011100030E043985B9A0F900F900F900F90329BA6
:101120006DC080E85B9843985B9A329980645B98C5
:1011300043985B9A329980625B98A90164E0559567
:1011400047956A95E1F7452B09F45AC0439A5B9A93
:10115000329980615B98A90193E0559547959A95DE
:10116000E1F74130510509F04DC0439A5B9A32993D
:1011700088605B9843985B9A329984605B9821FF02
:1011800043C0439A5B9A329982605B98D0FF3EC01D
:10119000439A5B9A329981605B9880931104F801BD
:1011A000C15008F437C0439A5B9A329B31C080E843
:1011B0005B98439A5B9A329980645B98439A5B9AF6
:1011C000329980625B98439A5B9A329980615B980E
:1011D000439A5B9A329988605B98439A5B9A3299FA
:1011E00084605B98439A5B9A329982605B98439AD9
:1011F0005B9A329981605B988193D2CF80E092CFE5
:101200004398A5CF4398B2CF4398BCCF4398C1CF62
:1012100080E0CECF88E094E00E94E9048DEF93E077
:101220009F938F930E94A416C0911C04C00FD12FCE
:10123000D11D0F900F9088EFE82E83E0F82E2197B4
:10124000C017D10790F401151105D9F485EF93E08B
:101250009F938F930E94A4160F900F90DF91CF91D0
:101260001F910F91FF90EF90089588811F928F93A7
:10127000FF92EF920E94A4160F900F900F900F9084
:10128000DECFC8010E945B19E1CFFC010190002074
:10129000E9F73197AF01481B590BBC018DEF91E085
:1012A0000C94E302CF93DF930E94D003EC0181E220
:1012B00091E00E9445098C0F9D1FDF91CF91089509
:1012C0008F929F92AF92BF920F931F93CF93DF9312
:1012D000CDB7DEB7A1970FB6F894DEBF0FBECDBF76
:1012E00019A2423008F44AE08E010F5D1F4F842E90
:1012F000912CB12CA12CA50194010E94DA1AE62FA1
:10130000B901CA01EA30F4F4E05DD801EE938D0131
:10131000232B242B252B79F790E080E0109719F0F0
:10132000CD010E944509A1960FB6F894DEBF0FBE0D
:10133000CDBFDF91CF911F910F91BF90AF909F9044
:101340008F900895E95CE1CFEF92FF920F931F9386
:10135000CF93DF937C010091CA0210E0E801289747
:10136000FC0196818CE6890F833008F09BC094398C
:1013700019F588E0E1EAF2E0A7E6B3E001900D920A
:101380008A95E1F7AE0169EA72E08091710390916C
:1013900072030E94021BD0937003C0936F0380916D
:1013A0006E03815080936E0381E0DF91CF911F9196
:1013B0000F91FF90EF90089520916F03309170038B
:1013C000AE01420F531F4139510520F010926E03B8
:1013D00080E0EBCF80916E038823D1F3963919F02A
:1013E00097818913F5CF40916B0350916C03F701FE
:1013F000848195814817590759F78091710390911D
:101400007203AE0169EA72E0820F931F0E94021B11
:1014100080916F0390917003C80FD91FD093700310
:10142000C0936F03F7018681863909F0B8CF109217
:101430006E03878180936D03833809F448C0A091BF
:101440006503B09166038BE593E08A1B9B0B8C17B9
:101450009D0708F4BDCF8AE0E7E6F3E001900D9226
:101460008A95E1F78091650390916603609171031D
:101470007091720340916F03509170030A960E941D
:10148000021B20916F0330917003265F3F4F8091C4
:10149000650390916603820F931F90936603809378
:1014A000650382CF9338A9F488E0E1EAF2E0A7E689
:1014B000B3E001900D928A95E1F789EA92E090936A
:1014C000720380937103D0937003C0936F0382E023
:1014D0006CCFA0916503B0916603CD018B5C924007
:1014E0008C0F9D1F8B39910508F072CF88E0E1EADF
:1014F000F2E001900D928A95E1F7E0916503F09199
:101500006603D187C0878091650390916603AE0121
:1015100069EA72E00A960E94021B0E5F1F4F8091DB
:10152000650390916603080F191F109366030093DB
:1015300065033ACF4F925F926F927F928F929F9204
:10154000AF92BF92CF92DF92EF92FF92CF93DF9351
:10155000EC014A015B010E94AF046B017C01240194
:1015600035018FE5480E511C611C711C67E1CE01ED
:101570000E94410784FD42C0898584FF30C020E07D
:1015800040E167E0CE010E94440560E0CE010E9488
:10159000D10461E0CE010E94D1040E94AF046C1915
:1015A0007D098E099F09681579058A059B05B8F0A4
:1015B00060E0CE010E94D104CE010E94820680E04C
:1015C000DF91CF91FF90EF90DF90CF90BF90AF90E1
:1015D0009F908F907F906F905F904F9008950E94A2
:1015E000AF046C197D098E099F09461657066806D7
:1015F000790608F0BBCF81E08E8BE1CF60E0CE01B1
:101600000E94D10481E0DCCF8F929F92AF92BF9273
:10161000EF92FF920F931F93CF93DF93CDB7DEB777
:1016200028970FB6F894DEBF0FBECDBF7C01B62E53
:10163000142F8091C40282FD06C08091C80290914F
:10164000C9020E94F7078091C40282FF04C0809102
:10165000A702843951F561E061278091C802909119
:10166000C9020E94D0070091C8021091C9026B2DD7
:10167000C7010E942E0229833A834B835C836D83CA
:101680007E838F839887F8012489AE014F5F5F4F77
:101690006AE0C8010E948E06F8012489AE014F5FFE
:1016A0005F4F60E1C8010E948E06E090C802F09092
:1016B000C9020091CA020E94AF044B015C0121E003
:1016C0004FEF6FEFC7010E944405F701818580FF4E
:1016D00012C084FD0EC00E94AF04681979098A09FE
:1016E0009B09603671058105910548F381E0F7019A
:1016F000868B10E0B8C08589811170C012851017E3
:1017000008F4012F101BC7010E94EC04439A5B9A56
:1017100032996CC080E05B9843985B9A3299806400
:101720005B98439A5B9A329980625B9843985B9A84
:10173000329980615B9843985B9A329988605B9894
:1017400043985B9A329984605B9843985B9A32998C
:1017500082605B9843985B9A329981605B98F7014D
:101760008187E1EAF2E0015008F452C08191282F0C
:1017700030E0220F232F221F330B232BC9F1439A72
:101780005B9A96B15B9886FF35C0439A5B9A96B197
:101790005B9885FF31C0439A5B9A96B15B9884FF52
:1017A0002DC0439A5B9A96B15B9883FF29C0439AF8
:1017B0005B9A96B15B9882FF25C0439A5B9A96B17B
:1017C0005B9881FF21C0439A5B9A96B15B9880FF3A
:1017D0001DC0439A5B9A86B15B98C5CF11E0011199
:1017E00010E0013208F48FCF00E28DCF80E893CF74
:1017F0004398C6CF4398CACF4398CECF4398D2CF11
:101800004398D6CF4398DACF4398DECF4398E2CFC0
:10181000115008F143985B9A86B15B9843985B9AA4
:1018200086B15B9843985B9A86B15B9843985B9AC4
:1018300086B15B9843985B9A86B15B9843985B9AB4
:1018400086B15B9843985B9A86B15B9843985B9AA4
:1018500086B15B98DDCFC7010E94E90461E0C70152
:101860000E94D10411E08091C40282FD16C0409113
:101870009B0250919C0260919D0270919E0280910A
:10188000C8029091C9020E949A0A182F60E08091C4
:10189000C8029091C9020E94D007812F28960FB6E6
:1018A000F894DEBF0FBECDBFDF91CF911F910F9196
:1018B000FF90EF90BF90AF909F908F900895CF9240
:1018C000DF92EF92FF920F931F93CF93DF9300D09D
:1018D00000D01F92CDB7DEB78C01F62E8034910573
:1018E00049F08830910531F00E94BB04E82E88232E
:1018F00009F45FC08091A70281548D831C821B82F2
:101900001A830983FB82CE0101960E94A00281E026
:10191000F8120EC089819A810817190749F49D8130
:101920009F3730F462E070E080E090E00E947C0439
:101930004C816B8189819A810E94040B91E0F9129C
:1019400047C0882309F446C089819A81081719077E
:10195000F9F48D818F37E0F481EC8093A7028091B8
:10196000A1029091A2029093A4028093A3029A8371
:101970008983FB821C82CE0101960E94A00288E02E
:101980008093CA024C816B8189819A810E94040BE9
:1019900089819A8108171907F9F4EE24E39480915C
:1019A000C40282FD06C08091C8029091C9020E94C3
:1019B00024088E2D0F900F900F900F900F90DF91B5
:1019C000CF911F910F91FF90EF90DF90CF900895EE
:1019D0008111DECFE12CE3CFFF2019F093E0F91263
:1019E000DCCF8D818F37C8F68091C40282FF1AC088
:1019F00040919B0250919C0260919D0270919E02C9
:101A00008091C8029091C9020E949A0A8091C402F2
:101A10008B7F8093C40260E08091C8029091C902DC
:101A20000E94D0078091C8029091C9020E942408A8
:101A30000E94AF046B017C010E94350D813C09F4CA
:101A4000ACCF0E94AF04AB01BC014C195D096E091B
:101A50007F0980919F029091A002B0E0A0E08417DE
:101A60009507A607B70740F7B5CF2F923F924F9241
:101A70005F926F927F928F929F92AF92BF92CF921E
:101A8000DF92EF92FF920F931F93CF93DF930E9409
:101A9000AF042B013C01C0E078E5272E72E0372E21
:101AA00088248394912CFBE7CF2EF5E2DF2EA4E26D
:101AB000AA2EA9E0BA2E0091C8021091C90221E015
:101AC0004FEF6FEFC8010E944405F801818590E057
:101AD000959587958770863090F40E94AF046419BD
:101AE0007509860997090091C8021091C902693EDB
:101AF000734081059105B8F081E0F801868B8C2F49
:101B0000DF91CF911F910F91FF90EF90DF90CF90D9
:101B1000BF90AF909F908F907F906F905F904F900D
:101B20003F902F90089560E6C8010E944107D82F8A
:101B3000813268F021E04FEF62EEC8010E94440557
:101B400062E070E080E090E00E947C04D0E0D093FE
:101B5000CA020091C8021091C902F8018589F12CCE
:101B6000811105C0F284FD1608F4DF2DFD1AC801AD
:101B70000E94EC0443985B9A329B56C080E85B98C5
:101B8000439A5B9A329980645B98439A5B9A329944
:101B900080625B9843985B9A329980615B98439826
:101BA0005B9A329988605B9843985B9A329984601B
:101BB0005B9843985B9A329982605B98439A5B9AF0
:101BC000329981605B98F8018187E1EAF2E0D150B7
:101BD00078F1439A5B9A329B29C080E85B98439ADC
:101BE0005B9A329980645B98439A5B9A32998062DF
:101BF0005B98439A5B9A329980615B98439A5B9AAF
:101C0000329988605B98439A5B9A329984605B98BA
:101C1000439A5B9A329982605B98439A5B9A3299B5
:101C200081605B988193D3CF80E0A9CF80E0D6CF4D
:101C3000FA94FFEFFF1609F1439A5B9A86B15B981D
:101C4000439A5B9A86B15B98439A5B9A86B15B989C
:101C5000439A5B9A86B15B98439A5B9A86B15B988C
:101C6000439A5B9A86B15B98439A5B9A86B15B987C
:101C7000439A5B9A86B15B98DBCFC8010E94E90466
:101C800020E040E467E0C8010E9444058091CA0258
:101C9000883008F410CF0091A3021091A402003400
:101CA000110549F00830110531F0C8010E94BB044C
:101CB000882309F400CFE090A102F090A20220E472
:101CC000E216F10451F038E0E316F10431F0C701F7
:101CD0000E94BB04882309F4EECEC091A702809134
:101CE000C6029091C70208171907E1F5C23809F436
:101CF000E2CEC03869F404321940D9F0B092A4029F
:101D0000A092A30262E084E299E00E945F0CD3CE2D
:101D1000C33C79F40115110561F01093A202009300
:101D2000A1021092A4021092A30260E090E080E071
:101D3000ECCF8091C302882351F0C7FF0AC08CE624
:101D40008C0F833030F0C33809F0D9CE02C0C13CCB
:101D5000B1F381EA92E00E94A409823009F0ABCE8F
:101D6000C3E8CDCE0034110509F067C0C23C01F5CF
:101D70002091C40223FD1AC08432E9E09E07B1F02D
:101D8000F092A402E092A3029093A2028093A10297
:101D90006091050470E090E080E00E947C0462E0C5
:101DA0008091A3029091A4020E945F0CC0E083CEB8
:101DB00081EA92E00E94A409D82F80919A02882398
:101DC000A9F18091C6029091C7029C0153E036951B
:101DD00027955A95E1F7232B19F0F6013197F1F782
:101DE000837099279C01229DC001239D900D329DF7
:101DF000900D11240E94D8028091C5028823D1F051
:101E00008150990B9C01220F331F820F931FF40105
:101E100002C0EE0FFF1F8A95E2F7CF0164E023E0D6
:101E2000880F991F2A95E1F70E945F0CD23009F0C4
:101E300042CE96CF90E080E0F1CF8432994009F411
:101E40003ACE61E0C801B0CF1F920F920FB60F9249
:101E500011242F933F934F935F936F937F938F93AF
:101E60009F93AF93BF93EF93FF938DEF91E00E9409
:101E70006103FF91EF91BF91AF919F918F917F91FE
:101E80006F915F914F913F912F910F900FBE0F90E7
:101E90001F9018951F920F920FB60F9211242F9337
:101EA0008F939F93EF93FF93E0910D02F0910E02B9
:101EB0008081E0911302F091140282FD1BC0908199
:101EC000809116028F5F8F7320911702821741F065
:101ED000E0911602F0E0E350FE4F958F80931602DA
:101EE000FF91EF919F918F912F910F900FBE0F90C7
:101EF0001F9018958081F4CF1F920F920FB60F920A
:101F000011242F933F938F939F93AF93BF9380910F
:101F1000610190916201A0916301B09164013091DF
:101F2000600123E0230F2D3758F50196A11DB11D47
:101F3000209360018093610190936201A0936301FB
:101F4000B09364018091650190916601A091670151
:101F5000B09168010196A11DB11D80936501909318
:101F60006601A0936701B0936801BF91AF919F9103
:101F70008F913F912F910F900FBE0F901F9018954A
:101F800026E8230F0296A11DB11DD2CFEDEFF1E09F
:101F90001382128288EE93E0A0E0B0E08483958300
:101FA000A683B78383E191E09183808385EC90E001
:101FB0009587848784EC90E09787868780EC90E013
:101FC000918B808B81EC90E0938B828B82EC90E004
:101FD000958B848B86EC90E0978B868B118E128E7E
:101FE000138E148EE8E0F4E085E090E09283818324
:101FF00082E090E09483838380E896E9A8E9B0E0EA
:1020000085839683A783B08780E28287118A128AAC
:1020100085E0848B81E0858B85E090E0A0E0B0E0F6
:10202000838F948FA58FB68F1386AAE9B2E09F960F
:10203000FC93EE939E978BEC92E0909366038093D3
:10204000650383E793E0909372038093710387E6BF
:1020500093E098969C938E9397979A961C929A9752
:1020600099961C9299971C920895CF93DF93CDB7C0
:10207000DEB72A970FB6F894DEBF0FBECDBF7894B7
:1020800084B5826084BD84B5816084BD85B582607D
:1020900085BD85B5816085BD80916E00816080932E
:1020A0006E00109281008091810082608093810097
:1020B00080918100816080938100809180008160A7
:1020C000809380008091B10084608093B100809102
:1020D000B00081608093B00080917A00846080932A
:1020E0007A0080917A00826080937A0080917A00F1
:1020F000816080937A0080917A00806880937A0072
:102100001092C10084E00E948102E0910D02F091E2
:102110000E0282E08083E0910902F0910A021082AF
:10212000E0910B02F0910C0280E180831092150285
:10213000E0911102F091120286E08083E0910F029B
:10214000F0911002808180618083E0910F02F09114
:102150001002808188608083E0910F02F09110026C
:10216000808180688083E0910F02F091100280816D
:102170008F7D80833A98429842983B9A439A539A2B
:102180005B988091090490910A048F3F980709F4A5
:102190004EC120910B0430910C042F3F320709F4FB
:1021A00046C18217930731F00E94810280910B048F
:1021B0000E94810260E088E094E00E94D10461E026
:1021C00088E094E00E94DD0465E070E080E090E04B
:1021D0000E947C0420E04FE564E088E094E00E94E7
:1021E000440585E590E0A0E0B0E080931F04909363
:1021F0002004A0932104B093220420E047E066E08D
:1022000088E094E00E9444056DE188E094E00E943B
:102210004107D82E0E94EF046DE188E094E00E940F
:10222000410791E0D81290E090931904882359F067
:10223000D81202C00E94EF0420E040E06DE188E087
:1022400094E00E94440510921B0420E040E06CE101
:1022500088E094E00E94440510921D0420E04FE3C2
:1022600061E088E094E00E94440520E043E062E001
:1022700088E094E00E94440580E28093120481E1AA
:10228000D82E20E0409112046D2D88E094E00E9449
:102290004405D39487E1D812F4CF20E043E063E013
:1022A00088E094E00E94440585E080931C0420E0CF
:1022B0004CE465E088E094E00E94440520E040E7BB
:1022C00067E088E094E00E94440521E04FEF62EE71
:1022D00088E094E00E94440588E094E00E94820631
:1022E00020E04CE060E088E094E00E94440560E07B
:1022F00088E094E00E9441078093180488E094E00D
:102300000E947306809118048E3009F090C082E616
:1023100093E00E94520920E04AE565E088E094E0FD
:102320000E94440582E090E00E94BB04882309F4E7
:10233000F7C082E090E09093C7028093C60280913C
:10234000C8029091C902FC01218132812F3F3F4F89
:1023500009F4E6C0FC01238134812F3F3F4F09F48B
:10236000DFC020E04FE361E00E94440560E080911F
:10237000C8029091C9020E94D007C090C802D090B4
:10238000C9026DE1C6010E944107482F446020E068
:102390006DE1C6010E9444056CE1C6010E9441073F
:1023A000482F4F6320E06CE1C6010E94440581E0A4
:1023B000F601858B8091C6029091C70266E070E0BD
:1023C0000E94C61A482F440F4B5FF0E14F9FA001B7
:1023D0001124456020E064E08091C8029091C90218
:1023E0000E94440589E190E0A0E0B0E080939B0268
:1023F00090939C02A0939D02B0939E028BE490E088
:102400009093A00280939F022091C6023091C70250
:1024100040E08FEF9FEFB90168237923672B61F0CC
:1024200003E0880F991F0A95E1F74F5FF4CF85E825
:1024300093E00E945209FFCF4093C502809590958A
:10244000909307048093060413E0969587951A9558
:10245000E1F7A9014823592350930404409303044E
:10246000009759F0A3E036952795AA95E1F7B3E0D8
:1024700096958795BA95E1F7F3CF20930504E6E0AA
:102480005E2E88248394912C5A94C090C802D090D8
:10249000C9022FEF521609F440C0652D82E090E08A
:1024A0000E942E0229833A834B835C836D837E8353
:1024B0008F839887A52CB12CC5018C5F9E4F3C0162
:1024C0005110EFC3F601448950E0BE016F5F7F4FAA
:1024D000C6010B960E94021B81E0F601828BF3017C
:1024E0006491F6012489AE014F5F5F4FC6010E94DF
:1024F0008E0662E0C6010E944107F501E250FF4FDF
:10250000E491A40101C0440FEA95EAF7482B20E0CA
:1025100062E0C6010E944405B7CFC6010E942408AC
:1025200070E060E081E698E00E94591660910D0429
:1025300070910E0480910F049091100420E432E415
:102540004FE050E00E94DA1A1F922F9389E493E043
:102550009F938F930E94A41665E088E094E00E9408
:102560004107282F30E0205A364F3F932F931F9278
:102570008F938DE293E09F938F930E94A41666E061
:1025800088E094E00E94410788720FB6F894DEBF9D
:102590000FBECDBFE2E0F0E0803239F021E090E004
:1025A000883009F020E0E22FF92FEE0FFF1FE95DE0
:1025B000FC4F859194919F938F9384E193E09F9337
:1025C0008F930E94A41666E088E094E00E94410781
:1025D000E82FF0E0F595E795E370F0E0EE0FFF1FD0
:1025E000E45FFC4F859194919F938F9384EF92E0E9
:1025F0009F938F930E94A41666E088E094E00E9467
:102600004107082F017010E0F801EE0FFF1FE6519F
:10261000FD4F859194919F938F938EEC92E09F93C1
:102620008F930E94A41661E088E094E00E94410725
:10263000182F60E088E094E00E944107809318041E
:102640000FB6F894DEBF0FBECDBF83FD04C0F0E02F
:10265000E0E0112331F0E2E0F0E082FD02C0E1E0D1
:10266000F0E0EE0FFF1FE853FD4F859194919F938B
:102670008F9387EB92E09F938F930E94A41663E061
:1026800088E094E00E944107837090E002969F9357
:102690008F938AE992E09F938F930E94A416809172
:1026A00012041F928F9387E792E09F938F930E946B
:1026B000A41664E088E094E00E944107182F90E09F
:1026C00004E0959587950A95E1F701964AEF489FB2
:1026D0009001499F300D11243F932F9382E592E0A2
:1026E0009F938F930E94A4161F701F921F938FE2D7
:1026F00092E09F938F930E94A41668E088E094E094
:102700000E944107182F90E024E0959587952A951F
:10271000E1F79F938F9384E092E09F938F930E94C1
:10272000A4161F701F921F938FEC91E09F938F93BD
:102730000E94A4166DE188E094E00E944107182FE2
:1027400024E0829FF0011124E470FF27E651FD4F41
:10275000859194919F938F938FEB91E09F938F93AB
:102760000E94A41611FBEE24E0F8F12CF701EE0F05
:10277000FF1FE651FD4F859194910FB6F894DEBF8F
:102780000FBECDBF9F938F9387EA91E09F938F9366
:102790000E94A4166CE188E094E00E9441070F902B
:1027A0000F900F900F9012FBEE27E0F9811101C0FE
:1027B000E0E0F0E0EE0FFF1FE651FD4F85919491B0
:1027C0009F938F9381E991E09F938F930E94A4162A
:1027D00061E088E094E00E9441070F900F900F9015
:1027E0000F908F3311F081111AC1E1E0F0E08111F7
:1027F00002C0F0E0E0E0EE0FFF1FE651FD4F8591D3
:1028000094919F938F9388E791E09F938F930E9479
:10281000A4160F900F900F900F9060E088E094E066
:102820000E9441078093180480FF25C182E51F9212
:102830008F938BE391E09F938F930E94A41660E1A6
:102840008FE291E00E946D0862E088E094E00E94CF
:1028500041070F900F900F900F9010E000E0482E6E
:10286000512C5CE1652E51E0752E6AE1E62E61E0A7
:10287000F62E75E1C72E71E0D72EEDE0AE2EE1E029
:10288000BE2EFAE08F2EF1E09F2EF201002E02C044
:10289000F595E7950A94E2F7E170FF273396EE0F7E
:1028A000FF1FE651FD4F859194919F938F931F9346
:1028B0000F937F926F920E94A4164AE0242E200E5E
:1028C0000F900F900F900F900F900F90023008F024
:1028D000D4C0622D8BE191E00E946D080F5F1F4F05
:1028E0000630110591F692E3892E912CA12CB12C82
:1028F00028E1222E312C0E94350DE0906503F090E6
:1029000066039BECE91692E0F90609F008F4BCC1F5
:102910000091D3021091D4020115110539F0A801DC
:1029200065ED72E08DE691E00E94021B86EF9FEF5D
:10293000801B910BE80EF91EF0926603E09265038E
:102940004AE950E0401B510BB8016B527D4F8BECB4
:1029500092E00E940B1B84E291E00E94450928014D
:10296000712C612C4AE0C301B8010E9460098BE31D
:1029700091E00E9445090E94AF04C0906901D09087
:102980006A01E0906B01F0906C016C197D098E0971
:102990009F094AE00E9460098DE391E00E94450989
:1029A00081E291E00E9445090E94AF0460936901B1
:1029B00070936A0180936B0190936C01EDE6F1E0F6
:1029C000FA87E987C12CD12C7601C414D504E6041A
:1029D000F70408F06DC0E985FA856191FA87E98707
:1029E00070E090E080E04AE00E94600986EB93E0AE
:1029F0000E94D003C701B601A50194010E94DA1A12
:102A0000613371058105910521F481E291E00E9415
:102A10004509FFEFCF1ADF0AEF0AFF0AD6CF51E3CD
:102A200080FF50E341E381FF40E331E382FF30E385
:102A300021E383FF20E391E384FF90E385FF19C046
:102A400081E31F925F931F924F931F923F931F92B8
:102A50002F931F929F931F928F9381E591E09F93F5
:102A60008F930E94A4160FB6F894DEBF0FBECDBFA1
:102A7000D4CE80E3E6CF84E5DACEFF92EF92DF9208
:102A8000CF920E94A416622D88E094E00E94410734
:102A90001F928F93BF92AF920E94A4169F928F9223
:102AA0000E94A4160FB6F894DEBF0FBECDBF16CF9E
:102AB00081E291E00E9445090115110509F41DCF3D
:102AC0006AE070E080E090E00E947C048CE491E099
:102AD0000E94450981E291E00E944509E0900001D1
:102AE000F0900101C70101969093010180930001CC
:102AF0000931110560F588E0800F8093CA0280914A
:102B0000C6029091C7029093A2028093A1021092F4
:102B1000A4021092A302F092A602E092A5021092E3
:102B2000A7021092A802A8016DE671E089EA92E07E
:102B30000E94021B60E090E080E00E945F0C88230E
:102B400009F499C081EB93E00E945209D6CE013975
:102B5000110508F090C0C801B1010E94C61A21E019
:102B6000892B09F420E0C801B1010E94C61AD22EB7
:102B7000D60E8091C40284608093C4028091C80202
:102B80009091C9020E94F707712CC12C88E1582E40
:102B900021E080E096E9D21629F08D2D95E9C1104B
:102BA00001C094E9C59CB0011124A801461B570B34
:102BB0004931510510F048E150E028E0240F2093FE
:102BC000CA022091C6023091C7023093A20220931C
:102BD000A1021092A4021092A302F092A602E09227
:102BE000A5029093A7028093A8020617170731F059
:102BF00063597E4F89EA92E00E94021B60E090E0F8
:102C000080E00E945F0C682E811138C062E070E0A5
:102C100080E090E00E947C04739432E0371508F065
:102C2000B7CF8091C40282FF1CC040919B0250919B
:102C30009C0260919D0270919E028091C8029091C9
:102C4000C9020E949A0A682E8091C8029091C90216
:102C50000E94240860E08091C8029091C9020E94FD
:102C6000D0078091C4028B7F8093C402662019F044
:102C7000DD2009F467CF88EA93E066CFDA94C39445
:102C8000DD2079F2712C84CF80E090E0892B09F46B
:102C900032CE0E944D03882309F42DCE0E940000FD
:102CA0002ACE41E0541609F41ACCF301649121E0D4
:102CB0001ACC0F931F93CF93DF93009759F46115AC
:102CC000710541F4F0E0E0E0CF01DF91CF911F9179
:102CD0000F9108958B01EC016EE070E081E090E0CF
:102CE0000E94A318FC01892B69F380E883830115F6
:102CF000110571F01387028781E88383809127048F
:102D000090912804892B21F4F0932804E093270460
:102D10002097D1F2D187C08783818260838380919D
:102D2000290490912A04892B79F6F0932A04E093E0
:102D3000290480912B0490912C04892B29F6F0937F
:102D40002C04E0932B04C0CFB0E0A0E0EAEAF6E167
:102D50000C949D1AAE01495F5F4FDA016D917D9130
:102D6000AD0107E214E0F80182819381DC01139642
:102D70002C911397286013962C930E94C916D801A2
:102D80001296ED91FC912381277F2383E4E00C943C
:102D9000B91AABE0B0E0EFECF6E10C948F1A7C01CD
:102DA0003B018A01FC0117821682838181FFC8C121
:102DB000CE0101965C01F7019381F30193FD8591AA
:102DC00093FF81913F01882309F453C1853239F47F
:102DD00093FD859193FF81913F01853229F4B701DD
:102DE00090E00E94011AE7CF912C212C312CFFE1B9
:102DF000F31538F08B3211F190F4803209F18332FF
:102E000029F137FC3CC020ED280F2A3050F536FE62
:102E100020C08AE0989E200D1124922E06C08D328B
:102E200091F0803371F7689430F8F30193FD859148
:102E300093FF81913F018111DACF21C0689431F86D
:102E4000689432F8F2CF689433F8EFCF689434F88E
:102E5000ECCFEAE02E9E200D1124222E689435F846
:102E6000E4CF8E3229F436FC04C1689436F8DDCF05
:102E70008C3619F4689437F8D8CF8836B1F2982F89
:102E80009F7D95549330E0F08336A1F18337C1F1F3
:102E9000833509F063C02801F2E04F0E511CF801A0
:102EA000C080D180692D70E036FC02C06FEF7FEFEB
:102EB000C6010E94E4194C01689437F882010AC0E7
:102EC0000C5F1F4FFFE3F98388248394912C6501E5
:102ED000E89437F833FE2DC0522C8114910471F51B
:102EE000552009F468CFB70180E290E00E94011AF2
:102EF0005A94F6CFF801808189830E5F1F4FE4CF8B
:102F00002801F2E04F0E511CF801C080D180692DDC
:102F100070E036FC02C06FEF7FEFC6010E94F61929
:102F20004C018201D5CFB70180E290E00E94011AE6
:102F30002A942814190409F0B0F7CECFF60137FC13
:102F4000859137FE81916F01B70190E00E94011ACF
:102F500051105A94F1E08F1A9108BFCF843619F0BE
:102F6000893609F077C0F80137FE6BC06081718146
:102F7000828193810C5F1F4FF32DFF763F2E97FFC9
:102F800009C090958095709561957F4F8F4F9F4FA9
:102F9000689437F82AE030E0A5010E94311AC82E63
:102FA000CA188C2C432C36FE0CC0E89440F8C91487
:102FB00040F434FE05C032FC03C0F32DFE7E4F2EDC
:102FC000892C44FE95C0FE01EC0DF11D80818033FB
:102FD00009F087C0242D297E422E842D8870582E1A
:102FE00043FC95C040FE8FC09C2C821418F42C0C1E
:102FF000922C981844FE91C0B70180E390E00E94A3
:10300000011A42FE09C088E790E041FE02C088E54F
:1030100090E0B7010E94011AC91408F48AC0CA944A
:10302000D12C9FEFC91AD90ACA0CDB1CF601829178
:103030006F01B70190E00E94011AAC14BD04B1F712
:103040004FCF60817181072E000C880B990B0E5FAA
:103050001F4F92CFD32CE894D4F82AE030E0853784
:1030600039F1232D297FD22E8F3601F148F488358E
:10307000A9F0F701868197812B96E2E10C94AB1AB7
:10308000803749F08837A9F7D4FE02C06894D2F897
:1030900020E130E00DC06894D4F8F6CF34FE03C0D0
:1030A000822F8660D82E20E132E002C028E030E096
:1030B000F801D7FE0FC060817181828193810C5F1E
:1030C0001F4FA5010E94311AC82ECA183D2CE89442
:1030D00037F867CF6081718190E080E00E5F1F4F0D
:1030E000F0CF42FC02C0839478CF8394839475CF51
:1030F000842D867809F471CFF6CFB70180E290E095
:103100000E94011A83948214C0F3512C73CF522C65
:103110005818821408F46ECFF8CF842D867809F4FD
:103120007BCF8BE241FE80E247FC8DE2B70190E06D
:1031300071CFB70180E390E00E94011A9A946CCF9E
:103140008FEF9FEF99CF0F931F93CF93DF93869FBE
:103150008001879F100D969F100D1124C8010E94B9
:10316000BF18EC01009729F0A80170E060E00E9410
:10317000EF19CE01DF91CF911F910F9108950F9319
:103180001F93CF93DF938230910510F482E090E09B
:10319000E0912F04F091300430E020E0B0E0A0E0B6
:1031A000309799F42115310509F44AC0281B390BD1
:1031B00024303105D8F58A819B816115710589F12B
:1031C000FB0193838283FE0111C040815181028102
:1031D000138148175907E0F04817590799F41097D9
:1031E00061F012960C93129713961C933296CF01AE
:1031F000DF91CF911F910F91089500932F041093A9
:103200003004F4CF2115310551F04217530738F03F
:10321000A901DB019A01BD01DF01F801C1CFEF0176
:10322000F9CF9093300480932F04CDCFFE01E20FAD
:10323000F31F819391932250310939832883D7CF8B
:1032400020912D0430912E04232B41F42091040170
:103250003091050130932E0420932D04209102011A
:10326000309103012115310541F42DB73EB740914E
:10327000060150910701241B350BE0912D04F091BC
:103280002E04E217F307A0F42E1B3F0B2817390773
:1032900078F0AC014E5F5F4F2417350748F04E0FB2
:1032A0005F1F50932E0440932D04819391939FCFE1
:1032B000F0E0E0E09CCFCF93DF930097E9F0FC01D2
:1032C000329713821282A0912F04B0913004ED0145
:1032D00030E020E01097A1F420813181820F931F0C
:1032E00020912D0430912E042817390709F061C070
:1032F000F0932E04E0932D04DF91CF910895EA011D
:10330000CE17DF07E8F54A815B819E014115510523
:10331000B1F7E901FB83EA8349915991C40FD51FA5
:10332000EC17FD0761F4808191810296840F951F4F
:10333000E90199838883828193819B838A83F0E06A
:10334000E0E012968D919C9113970097B9F52D911D
:103350003C911197CD010296820F931F20912D046D
:1033600030912E042817390739F6309751F510920D
:10337000300410922F04B0932E04A0932D04BCCFE0
:10338000D383C28340815181840F951FC817D90709
:1033900061F44E5F5F4F88819981480F591F5183B7
:1033A00040838A819B81938382832115310509F0B3
:1033B000B0CFF0933004E0932F049ECFFD01DC01E9
:1033C000C0CF13821282D7CFFC01059061507040AC
:1033D0000110D8F7809590958E0F9F1F0895DC01FE
:1033E00001C06D9341505040E0F70895FC016150D9
:1033F000704001900110D8F7809590958E0F9F1F17
:1034000008950F931F93CF93DF93182F092FEB018C
:103410008B8181FD09C01FEF0FEF812F902FDF916E
:10342000CF911F910F91089582FF14C02E813F818B
:103430008C819D81281739073CF4E881F981CF01FF
:1034400001969983888310838E819F8101969F8343
:103450008E83E3CFE885F985812F0995892BA1F328
:10346000DACFFA01AA27283051F1203181F1E8940E
:103470006F936E7F6E5F7F4F8F4F9F4FAF4FB1E067
:103480003ED0B4E03CD0670F781F891F9A1FA11D62
:10349000680F791F8A1F911DA11D6A0F711D811D63
:1034A000911DA11D20D009F468943F912AE0269F28
:1034B00011243019305D3193DEF6CF010895462F87
:1034C0004770405D4193B3E00FD0C9F7F6CF462F68
:1034D0004F70405D4A3318F0495D31FD40524193D1
:1034E00002D0A9F7EACFB4E0A6959795879577958E
:1034F0006795BA95C9F700976105710508959B0115
:10350000AC010A2E06945795479537952795BA959D
:10351000C9F7620F731F841F951FA01D08952F9276
:103520003F924F925F926F927F928F929F92AF9253
:10353000BF92CF92DF92EF92FF920F931F93CF93A0
:10354000DF93CDB7DEB7CA1BDB0B0FB6F894DEBF37
:103550000FBECDBF09942A88398848885F846E845D
:103560007D848C849B84AA84B984C884DF80EE80A7
:10357000FD800C811B81AA81B981CE0FD11D0FB6B0
:10358000F894DEBF0FBECDBFED010895AA1BBB1B93
:1035900051E107C0AA1FBB1FA617B70710F0A61B53
:1035A000B70B881F991F5A95A9F780959095BC0174
:1035B000CD010895A1E21A2EAA1BBB1BFD010DC06F
:1035C000AA1FBB1FEE1FFF1FA217B307E407F507D3
:1035D00020F0A21BB30BE40BF50B661F771F881FAF
:1035E000991F1A9469F760957095809590959B0145
:1035F000AC01BD01CF010895EE0FFF1F0590F491BE
:10360000E02D0994FB01DC0102C001900D924150B4
:103610005040D8F708956817790768F4FB01DC017A
:10362000E40FF51FA40FB51F02C002900E92415087
:0E3630005040D8F708950C94021BF894FFCF79
:10363E000100000031048000C33C33CE3EE3EC00B9
:10364E000000008303E3021003EB0341031F033367
:10365E00030D0A00526563656976656420706163C7
:10366E006B65742C2073697A65200028006D7320B9
:10367E0073696E6365206C617374290073656E6483
:10368E00206461746120746F206D617374657200C3
:00000001FF
