:100000000C940C020C9434020C9434020C943402C0
:100010000C9434020C9434020C9434020C94340288
:100020000C9434020C9434020C9434020C94340278
:100030000C9434020C9434020C9434020C94340268
:100040000C94840F0C9434020C94520F0C942C0FCB
:100050000C9434020C9434020C9434020C94340248
:100060000C9434020C9434023D20313620626974C1
:1000700073003D2038206269747300206F70656ED4
:100080002000636C6F736564003D20416C6C6F777A
:100090006564003D20456E61626C6564003D2044EE
:1000A000697361626C6564003D2050415F4D415849
:1000B000003D2050415F48494748003D2050415F86
:1000C0004C4F57003D2050415F4D494E003D20327E
:1000D0003530204B425053003D2032204D4250538A
:1000E000003D2031204D4250530000000008000226
:1000F00001000003040700000000000000000001F0
:10010000020304050A0B0C0D0E0F0D0A00203078B7
:1001100025303278002553093D0000007069706574
:10012000202575202825532920626F756E640054A0
:1001300058206164647265737309005072696D615F
:100140007279204D6F646509093D202563580D0AB9
:10015000004175746F2041636B6E6F776C656467E7
:100160006D656E74093D2030622563256325632526
:1001700063256325630D0A004175746F2041636B2D
:100180006E6F776C6564676D656E740925530D0A33
:100190000044796E616D6963205061796C6F6164B0
:1001A000730925530D0A00437573746F6D20414325
:1001B0004B205061796C6F61640925530D0A004D25
:1001C000756C746963617374090925530D0A0052D3
:1001D0006574727920617474656D707473206D61DB
:1001E000646520666F720A202020206C6173742081
:1001F0007472616E736D697373696F6E093D20254A
:10020000640D0A005061636B657473206C6F7374C6
:10021000206F6E0A2020202063757272656E742034
:100220006368616E6E656C093D2025640D0A0041AE
:1002300075746F20526574727920417474656D70A5
:100240007473093D202564206D6178696D756D0DAD
:100250000A004175746F2052657472792044656C90
:100260006179093D202564206D6963726F73656350
:100270006F6E64730D0A005374617469632050617A
:10028000796C6F6164204C656E677468093D202548
:10029000642062797465730D0A0041646472657349
:1002A00073204C656E67746809093D2025642062DF
:1002B000797465730D0A00435243204C656E677470
:1002C00068090925530D0A009D0072006800524616
:1002D000204C6F77204E6F69736520416D706C699B
:1002E000666965720925530D0A009D009300890017
:1002F00082007B00524620506F77657220416D70FE
:100300006C69666965720925530D0A00C400BB005B
:10031000B100A800524620446174612052617465A6
:10032000090925530D0A00E100D800CD004368619A
:100330006E6E656C0909093D20257520287E2025F3
:1003400075204D487A290D0A0053504920467265A0
:100350007175656E637909093D202564204D687AC1
:100360000A006D617374657220524632342F6578CD
:10037000616D706C65732F47657474696E67537433
:10038000617274656400726164696F20686172648F
:1003900077617265206973206E6F74207265737067
:1003A0006F6E64696E672121003A200020666169E2
:1003B0006C65642E00206F6B2E0053656E64696E51
:1003C000672073697A65200000000000250028007E
:1003D0002B0000000000240027002A00040404046D
:1003E00004040404020202020202030303030303DF
:1003F00001020408102040800102040810200102BC
:10040000040810200D0A00253032780020307800D2
:100410002553093D0000CE0F11241FBECFEFD8E0B9
:10042000DEBFCDBF11E0A0E0B1E0E6EEF6E302C032
:1004300005900D92AE34B107D9F724E0AEE4B1E0F7
:1004400001C01D92A43BB207E1F712E0CCE0D2E07C
:1004500004C02197FE010E94501BCB30D107C9F781
:100460000E943D100C94711B0C940000CF93DF93FD
:10047000CDB7DEB728970FB6F894DEBF0FBECDBF5D
:10048000AC019CEC99839A839B839C839D831E8201
:100490001F8218869A01E1E021153105C9F061112A
:1004A00003C04115510569F4D901A770BB27A65FA8
:1004B000BE4F8C91A1E0B0E0AC0FBD1FAE0FB11DDF
:1004C0008C9383E0369527958A95E1F7EF5FE4CF2B
:1004D000611102C0452BB9F4E62FF0E0E65FFE4F54
:1004E0008081898329813A814B815C816D817E8104
:1004F0008F81988528960FB6F894DEBF0FBECDBFCA
:10050000DF91CF910895F0E0E75FFE4F80818A830D
:10051000E9CF90E0FC01E051FC4F249184529C4FC4
:10052000FC018491882399F090E0880F991FFC01C9
:10053000EE52FC4FA591B491FC01E853FC4F85911C
:1005400094918FB7F894EC91E22BEC938FBF0895C0
:10055000FC01408151818281823038F081E08383C7
:1005600080E05183408382830895209189043091F3
:100570008A04B901642375238091490390914A0349
:100580006817790739F0409186045091870480916B
:100590008804E7CFC9018095909563E0880F991F83
:1005A0006A95E1F784239523892B41F083E0220F9C
:1005B000331F8A95E1F727604223532385E0D1CF8B
:1005C0008230910538F0880F991F880F991F059781
:1005D0000197F1F70895AF92BF92CF92DF92EF9219
:1005E000FF920F931F93CF93DF936C017B018B01DD
:1005F000040F151FEB015E01AE18BF08C017D1072D
:1006000059F06991D601ED91FC910190F081E02DB6
:10061000C6010995892B79F7C501DF91CF911F910B
:100620000F91FF90EF90DF90CF90BF90AF90089523
:10063000FC01538D448D252F30E0842F90E0821BE8
:10064000930B541710F0CF96089501970895FC016D
:10065000918D828D981761F0A28DAE0FBF2FB11DC5
:100660005D968C91928D9F5F9F73928F90E008951D
:100670008FEF9FEF0895FC01918D828D981731F0D7
:10068000828DE80FF11D858D90E008958FEF9FEF2B
:100690000895FC01918D228D892F90E0805C9F4F01
:1006A000821B91098F739927089580E892E00E9438
:1006B000490321E0892B09F420E0822F089580E08E
:1006C00090E0892B29F00E94550381110C940000C1
:1006D0000895FC01A48DA80FB92FB11DA35ABF4FD7
:1006E0002C91848D90E001968F739927848FA68931
:1006F000B7892C93A089B1898C91837080648C9385
:10070000938D848D981306C00288F389E02D808133
:100710008F7D80830895EF92FF920F931F93CF9365
:10072000DF93EC0181E0888F9B8D8C8D98131AC02C
:10073000E889F989808185FF15C09FB7F894EE8913
:10074000FF896083E889F989808183708064808370
:100750009FBF81E090E0DF91CF911F910F91FF90BB
:10076000EF900895F62E0B8D10E00F5F1F4F0F7363
:100770001127E02E8C8D8E110CC00FB607FCFACF1E
:10078000E889F989808185FFF5CFCE010E94690350
:10079000F1CFEB8DEC0FFD2FF11DE35AFF4FF082EF
:1007A0009FB7F8940B8FEA89FB8980818062CFCF55
:1007B0000F931F93CF93DF938C01D0E0C0E0F8013B
:1007C000EC0FFD1F6491662341F080E892E00E94E7
:1007D0008B03892B11F02196F2CFCE01DF91CF91BF
:1007E0001F910F910895CF93DF93EC01888D88239B
:1007F000B9F0AA89BB89E889F9898C9185FD03C084
:10080000808186FD0DC00FB607FCF7CF8C9185FF68
:10081000F2CF808185FFEDCFCE010E946903E9CF41
:10082000DF91CF91089590E0FC01E651FF4F2491B4
:10083000FC01E051FC4F3491FC01E452FC4FE49187
:10084000EE23C9F0222339F0233001F1A8F421303E
:1008500019F1223029F1F0E0EE0FFF1FE853FC4FB1
:10086000A591B4918FB7F894EC91611126C03095A1
:100870003E233C938FBF08952730A9F02830C9F05C
:10088000243049F7809180008F7D03C080918000E3
:100890008F7780938000DFCF84B58F7784BDDBCFE7
:1008A00084B58F7DFBCF8091B0008F778093B000AF
:1008B000D2CF8091B0008F7DF9CF3E2BDACF3FB7FA
:1008C000F8948091530190915401A0915501B091F9
:1008D000560126B5A89B05C02F3F19F00196A11D12
:1008E000B11D3FBFBA2FA92F982F8827BC01CD017A
:1008F000620F711D811D911D42E0660F771F881FD9
:10090000991F4A95D1F708958F929F92AF92BF9207
:10091000CF92DF92EF92FF926B017C010E945F0405
:100920004B015C01C114D104E104F104B9F00E944F
:100930005F04681979098A099B09683E734081053B
:10094000910580F321E0C21AD108E108F10888EE90
:10095000880E83E0981EA11CB11CE4CFFF90EF909D
:10096000DF90CF90BF90AF909F908F9008952FB75A
:10097000F89460914F0170915001809151019091D4
:1009800052012FBF089520E0009761F0382F377093
:100990003150353060F433E0969587953A95E1F71C
:1009A0002F5FF2CF81E0253008F080E0089580E0ED
:1009B000FACFFC0121813281838194812817390784
:1009C00019F0822F0C9413040895CF93DF93EC0158
:1009D0008B810E9413048B8D9C8DDF91CF910C94A1
:1009E000E00261E00C94E50460E00C94E5048BE81F
:1009F00094E00E94F40443985B9A329B4BC080E8D9
:100A00005B98439A5B9A329980645B9843985B9AAF
:100A1000329980625B98439A5B9A329980615B98C5
:100A200043985B9A329988605B9843985B9A3299B5
:100A300084605B9843985B9A329982605B98439894
:100A40005B9A329981605B988093940443985B9A97
:100A500086B15B98439A5B9A86B15B98439A5B9A9E
:100A600086B15B98439A5B9A86B15B9843985B9A90
:100A700086B15B9843985B9A86B15B98439A5B9A80
:100A800086B15B98439A5B9A86B15B988BE894E059
:100A90000C94F10480E0B4CF4F925F926F927F92FA
:100AA0008F929F92AF92BF92CF92DF92EF92FF927E
:100AB0000F931F93CF93DF933C01542E862F8062B8
:100AC000882E912C5401AA0CAB2CAA1CBB086401E3
:100AD00046E0D594C7944A95E1F7740154E0F59443
:100AE000E7945A95E1F7840173E0159507957A9597
:100AF000E1F7E401D595C795D595C7959594879469
:100B00006170462EC301222309F45FC00E94F404E1
:100B1000AB2809F44AC0439A5B9A329948C080E0F6
:100B20005B98C0FE46C0439A5B9A329980645B989A
:100B3000439A5B9A329980625B98E0FE3CC0439A8C
:100B40005B9A329980615B9800FF37C0439A5B9A49
:100B5000329988605B98C0FF32C0439A5B9A3299A1
:100B600084605B9880FE2DC0439A5B9A32998260C4
:100B70005B98442041F1439A5B9A329981605B987B
:100B8000F3018187C301DF91CF911F910F91FF90F6
:100B9000EF90DF90CF90BF90AF909F908F907F901D
:100BA0006F905F904F900C94F1044398B5CF80E81C
:100BB000B7CF4398B9CF4398C3CF4398C8CF439892
:100BC000CDCF4398D2CF4398D7CF0E94F404AB281F
:100BD00009F471C0439A5B9A32996FC080E05B98C8
:100BE000C0FE6DC0439A5B9A329980645B98439AC9
:100BF0005B9A329980625B98E0FE63C0439A5B9A8D
:100C0000329980615B9800FF5EC0439A5B9A32998B
:100C100088605B98C0FF59C0439A5B9A32998460A0
:100C20005B9880FE54C0439A5B9A329982605B98CD
:100C3000442009F44EC0439A5B9A329981605B98D4
:100C4000F3018187852D90E09C01220F232F221F25
:100C5000330B232B09F43FC0439A5B9A26B15B9870
:100C600086FF3BC0439A5B9A26B15B9885FF37C0ED
:100C7000439A5B9A26B15B9884FF33C0439A5B9A90
:100C800026B15B9883FF2FC0439A5B9A26B15B988D
:100C900082FF2BC0439A5B9A96B15B9881FF27C075
:100CA000439A5B9A86B15B9850FE23C0439A5B9A45
:100CB00086B15B9867CF43988ECF80E890CF4398FA
:100CC00092CF43989CCF4398A1CF4398A6CF439807
:100CD000ABCF4398B1CF4398C0CF4398C4CF43988C
:100CE000C8CF4398CCCF4398D0CF4398D4CF439824
:100CF000D8CF4398DCCFFC01408941FD0AC0426057
:100D0000408B20E060E00E944C058BE19EE401975F
:100D1000F1F70895CF93DF93EC0121E04FEF61EEFF
:100D20000E944C058985DF91CF910895EF92FF9243
:100D30000F931F93CF93DF93EC01062F7A01122FAD
:100D40000E94F404202F206230E0C901880F892F0F
:100D5000881F990B892B09F473C0439A5B9A3299C7
:100D600071C080E05B9826FF6FC0439A5B9A32990E
:100D700080645B98439A5B9A329980625B9824FF07
:100D800065C0439A5B9A329980615B9823FF60C08B
:100D9000439A5B9A329988605B9822FF5BC0439AC2
:100DA0005B9A329984605B9821FF56C0439A5B9AA4
:100DB000329982605B9800FF51C0439A5B9A3299E6
:100DC00081605B988987F701115008F459C08191BF
:100DD000282F30E0220F232F221F330B232B09F45F
:100DE0003FC0439A5B9A96B15B9886FF3BC0439A9B
:100DF0005B9A96B15B9885FF37C0439A5B9A96B130
:100E00005B9884FF33C0439A5B9A96B15B9883FFEB
:100E10002FC0439A5B9A96B15B9882FF2BC0439A8E
:100E20005B9A96B15B9881FF27C0439A5B9A96B113
:100E30005B9880FF23C0439A5B9A86B15B98C4CFCE
:100E400043988CCF80E88ECF439890CF43989ACF29
:100E500043989FCF4398A4CF4398A9CF4398AECF50
:100E60004398C0CF4398C4CF4398C8CF4398CCCFC2
:100E70004398D0CF4398D4CF4398D8CF4398DCCF72
:100E8000CE01DF91CF911F910F91FF90EF900C94C5
:100E9000F1040F931F93CF938C01C62F0E94F4048B
:100EA0002C2F30E0C901880F892F881F990B892BBF
:100EB00009F46AC0439A5B9A329B68C080E85B98E9
:100EC00026FF66C0439A5B9A329980645B9825FF3F
:100ED00061C0439A5B9A329980625B9824FF5CC040
:100EE000439A5B9A329980615B9823FF57C0439A7B
:100EF0005B9A329988605B9822FF52C0439A5B9A52
:100F0000329984605B9821FF4DC0439A5B9A329975
:100F100082605B98C0FF48C0439A5B9A32998160B7
:100F20005B98F8018187439A5B9A329B3FC0C0E887
:100F30005B98439A5B9A3299C0645B98439A5B9A38
:100F40003299C0625B98439A5B9A3299C0615B9810
:100F5000439A5B9A3299C8605B98439A5B9A32993C
:100F6000C4605B98439A5B9A3299C2605B98439ADB
:100F70005B9A3299C1605B98C8010E94F1048C2F82
:100F8000CF911F910F910895439895CF80E097CF0F
:100F9000439899CF43989ECF4398A3CF4398A8CF27
:100FA0004398ADCF4398B2CF4398B7CFC0E0C0CFFE
:100FB0001F93CF93DF93EC01162F61E00E94490746
:100FC000112359F0182F116020E0412F61E0CE016C
:100FD000DF91CF911F910C944C05182F1E7F8B89A8
:100FE000882391F36DE1CE010E944907482F4D6F90
:100FF00020E06DE1CE010E944C051B8AE5CFCF9326
:10100000DF93EC0160E00E94D9048F89988D0E94E3
:10101000E0028B89882319F0CE010E948A06488954
:101020004E7F488B20E060E0CE010E944C0562E0DC
:10103000CE010E944907EEEFF0E0E49141E050E07C
:1010400001C0440FEA95EAF7482B20E062E0CE01A8
:10105000DF91CF910C944C05CF93DF93EC010E946C
:101060007B0648894160488B20E060E0CE010E9409
:101070004C0520E040E767E0CE010E944C0561E0AE
:10108000CE010E94D9048A89882351F0AE01455FC0
:101090005F4F2C896AE0CE01DF91CF910C949606C8
:1010A00062E0CE010E944907EEEFF0E0E49121E01A
:1010B00030E001C0220FEA95EAF72095422F48233D
:1010C00020E062E0CE010E944C051A8ADF91CF91A8
:1010D0000895CF93C82F682F80E892E00E948B0379
:1010E0008C2FCC0F990BCF910895EF92FF920F9315
:1010F0001F93CF93DF93D62F9F938F9380E194E03C
:101100009F938F930E94F816C0919F048C2F90E0BC
:101110000E9413198C018BE894E00E94F4042D2F97
:1011200030E043985B9A0F900F900F900F90329B96
:101130006DC080E85B9843985B9A329980645B98B5
:1011400043985B9A329980625B98A90164E0559557
:1011500047956A95E1F7452B09F45AC0439A5B9A83
:10116000329980615B98A90193E0559547959A95CE
:10117000E1F74130510509F04DC0439A5B9A32992D
:1011800088605B9843985B9A329984605B9821FFF2
:1011900043C0439A5B9A329982605B98D0FF3EC00D
:1011A000439A5B9A329981605B9880939404F8012A
:1011B000C15008F437C0439A5B9A329B31C080E833
:1011C0005B98439A5B9A329980645B98439A5B9AE6
:1011D000329980625B98439A5B9A329980615B98FE
:1011E000439A5B9A329988605B98439A5B9A3299EA
:1011F00084605B98439A5B9A329982605B98439AC9
:101200005B9A329981605B988193D2CF80E092CFD4
:101210004398A5CF4398B2CF4398BCCF4398C1CF52
:1012200080E0CECF8BE894E00E94F1048CE094E063
:101230009F938F930E94F816C0919F04C00FD12FE7
:10124000D11D0F900F9087E0E82E84E0F82E2197B3
:10125000C017D10790F401151105D9F484E094E08A
:101260009F938F930E94F8160F900F90DF91CF916C
:101270001F910F91FF90EF90089588811F928F9397
:10128000FF92EF920E94F8160F900F900F900F9020
:10129000DECFC8010E94AF19E1CFFC010190002010
:1012A000E9F73197AF01481B590BBC0180E892E088
:1012B0000C94EB02CF93DF930E94D803EC0183E2FE
:1012C00091E00E944D098C0F9D1FDF91CF910895F1
:1012D0008F929F92AF92BF920F931F93CF93DF9302
:1012E000CDB7DEB7A1970FB6F894DEBF0FBECDBF66
:1012F00019A2423008F44AE08E010F5D1F4F842E80
:10130000912CB12CA12CA50194010E942E1BE62F3B
:10131000B901CA01EA30F4F4E05DD801EE938D0121
:10132000232B242B252B79F790E080E0109719F0E0
:10133000CD010E944D09A1960FB6F894DEBF0FBEF5
:10134000CDBFDF91CF911F910F91BF90AF909F9034
:101350008F900895E95CE1CFEF92FF920F931F9376
:10136000CF93DF937C0100914D0310E0E8012897B3
:10137000FC0196818CE6890F833008F09BC094397C
:1013800019F588E0E4E2F3E0AAEEB3E001900D92F3
:101390008A95E1F7AE016CE273E08091F4039091DD
:1013A000F5030E94561BD093F303C093F203809180
:1013B000F10381508093F10381E0DF91CF911F9180
:1013C0000F91FF90EF9008952091F2033091F30375
:1013D000AE01420F531F4139510520F01092F10325
:1013E00080E0EBCF8091F1038823D1F3963919F097
:1013F00097818913F5CF4091EE035091EF03F701E8
:10140000848195814817590759F78091F403909189
:10141000F503AE016CE273E0820F931F0E94561B2E
:101420008091F2039091F303C80FD91FD093F30377
:10143000C093F203F7018681863909F0B8CF109284
:10144000F10387818093F003833809F448C0A091A9
:10145000E803B091E9038EED93E08A1B9B0B8C1798
:101460009D0708F4BDCF8AE0EAEEF3E001900D920B
:101470008A95E1F78091E8039091E9036091F40384
:101480007091F5034091F2035091F3030A960E9484
:10149000561B2091F2033091F303265F3F4F80915A
:1014A000E8039091E903820F931F9093E9038093DF
:1014B000E80382CF9338A9F488E0E4E2F3E0AAEEEF
:1014C000B3E001900D928A95E1F78CE293E090935E
:1014D000F5038093F403D093F303C093F20382E007
:1014E0006CCFA091E803B091E903CD018E549340F5
:1014F0008C0F9D1F8B39910508F072CF88E0E4E2D4
:10150000F3E001900D928A95E1F7E091E803F09104
:10151000E903D187C0878091E8039091E903AE0188
:101520006CE273E00A960E94561B0E5F1F4F80917B
:10153000E8039091E903080F191F1093E903009342
:10154000E8033ACF4F925F926F927F928F929F9271
:10155000AF92BF92CF92DF92EF92FF92CF93DF9341
:10156000EC014A015B010E94B7046B017C0124017C
:1015700035018FE5480E511C611C711C67E1CE01DD
:101580000E94490784FD42C0898584FF30C020E065
:1015900040E167E0CE010E944C0560E0CE010E9470
:1015A000D90461E0CE010E94D9040E94B7046C19ED
:1015B0007D098E099F09681579058A059B05B8F094
:1015C00060E0CE010E94D904CE010E948A0680E02C
:1015D000DF91CF91FF90EF90DF90CF90BF90AF90D1
:1015E0009F908F907F906F905F904F9008950E9492
:1015F000B7046C197D098E099F09461657066806BF
:10160000790608F0BBCF81E08E8BE1CF60E0CE01A0
:101610000E94D90481E0DCCF8F929F92AF92BF925B
:10162000EF92FF920F931F93CF93DF93CDB7DEB767
:1016300028970FB6F894DEBF0FBECDBF7C01B62E43
:10164000142F8091470382FD06C080914B03909137
:101650004C030E94FF078091470382FF04C08091E2
:101660002A03843951F561E0612780914B03909101
:101670004C030E94D80700914B0310914C036B2D33
:10168000C7010E94360229833A834B835C836D83B2
:101690007E838F839887F8012489AE014F5F5F4F67
:1016A0006AE0C8010E949606F8012489AE014F5FE6
:1016B0005F4F60E1C8010E949606E0904B03F090F6
:1016C0004C0300914D030E94B7044B015C0121E0E3
:1016D0004FEF6FEFC7010E944C05F701818580FF36
:1016E00012C084FD0EC00E94B704681979098A09E6
:1016F0009B09603671058105910548F381E0F7018A
:10170000868B10E0B8C08589811170C012851017D2
:1017100008F4012F101BC7010E94F404439A5B9A3E
:1017200032996CC080E05B9843985B9A32998064F0
:101730005B98439A5B9A329980625B9843985B9A74
:10174000329980615B9843985B9A329988605B9884
:1017500043985B9A329984605B9843985B9A32997C
:1017600082605B9843985B9A329981605B98F7013D
:101770008187E4E2F3E0015008F452C08191282F00
:1017800030E0220F232F221F330B232BC9F1439A62
:101790005B9A96B15B9886FF35C0439A5B9A96B187
:1017A0005B9885FF31C0439A5B9A96B15B9884FF42
:1017B0002DC0439A5B9A96B15B9883FF29C0439AE8
:1017C0005B9A96B15B9882FF25C0439A5B9A96B16B
:1017D0005B9881FF21C0439A5B9A96B15B9880FF2A
:1017E0001DC0439A5B9A86B15B98C5CF11E0011189
:1017F00010E0013208F48FCF00E28DCF80E893CF64
:101800004398C6CF4398CACF4398CECF4398D2CF00
:101810004398D6CF4398DACF4398DECF4398E2CFB0
:10182000115008F143985B9A86B15B9843985B9A94
:1018300086B15B9843985B9A86B15B9843985B9AB4
:1018400086B15B9843985B9A86B15B9843985B9AA4
:1018500086B15B9843985B9A86B15B9843985B9A94
:1018600086B15B98DDCFC7010E94F10461E0C7013A
:101870000E94D90411E08091470382FD16C0409177
:101880001E0350911F0360912003709121038091EA
:101890004B0390914C030E94A20A182F60E08091A4
:1018A0004B0390914C030E94D807812F28960FB6C6
:1018B000F894DEBF0FBECDBFDF91CF911F910F9186
:1018C000FF90EF90BF90AF909F908F900895CF9230
:1018D000DF92EF92FF920F931F93CF93DF9300D08D
:1018E00000D01F92CDB7DEB78C01F62E8034910563
:1018F00049F08830910531F00E94C304E82E882316
:1019000009F45FC080912A0381548D831C821B825D
:101910001A830983FB82CE0101960E94A80281E00E
:10192000F8120EC089819A810817190749F49D8120
:101930009F3730F462E070E080E090E00E94840421
:101940004C816B8189819A810E940C0B91E0F91284
:1019500047C0882309F446C089819A81081719076E
:10196000F9F48D818F37E0F481EC80932A03809124
:1019700024039091250390932703809326039A8351
:101980008983FB821C82CE0101960E94A80288E016
:1019900080934D034C816B8189819A810E940C0B4D
:1019A00089819A8108171907F9F4EE24E39480914C
:1019B000470382FD06C080914B0390914C030E9427
:1019C0002C088E2D0F900F900F900F900F90DF919D
:1019D000CF911F910F91FF90EF90DF90CF900895DE
:1019E0008111DECFE12CE3CFFF2019F093E0F91253
:1019F000DCCF8D818F37C8F68091470382FF1AC0F4
:101A000040911E0350911F036091200370912103A8
:101A100080914B0390914C030E94A20A809147034E
:101A20008B7F8093470360E080914B0390914C0340
:101A30000E94D80780914B0390914C030E942C0880
:101A40000E94B7046B017C010E943D0D813C09F4AA
:101A5000ACCF0E94B704AB01BC014C195D096E0903
:101A60007F098091220390912303B0E0A0E08417C6
:101A70009507A607B70740F7B5CF2F923F924F9231
:101A80005F926F927F928F929F92AF92BF92CF920E
:101A9000DF92EF92FF920F931F93CF93DF930E94F9
:101AA000B7042B013C01C0E078E5272E72E0372E09
:101AB00088248394912CFBE7CF2EF5E2DF2EA4E25D
:101AC000AA2EA9E0BA2E00914B0310914C0321E0FD
:101AD0004FEF6FEFC8010E944C05F801818590E03F
:101AE000959587958770863090F40E94B7046419A5
:101AF00075098609970900914B0310914C03693EC3
:101B0000734081059105B8F081E0F801868B8C2F38
:101B1000DF91CF911F910F91FF90EF90DF90CF90C9
:101B2000BF90AF909F908F907F906F905F904F90FD
:101B30003F902F90089560E6C8010E944907D82F72
:101B4000813268F021E04FEF62EEC8010E944C053F
:101B500062E070E080E090E00E948404D0E0D093E6
:101B60004D0300914B0310914C03F8018589F12C32
:101B7000811105C0F284FD1608F4DF2DFD1AC8019D
:101B80000E94F40443985B9A329B56C080E85B98AD
:101B9000439A5B9A329980645B98439A5B9A329934
:101BA00080625B9843985B9A329980615B98439816
:101BB0005B9A329988605B9843985B9A329984600B
:101BC0005B9843985B9A329982605B98439A5B9AE0
:101BD000329981605B98F8018187E4E2F3E0D150AB
:101BE00078F1439A5B9A329B29C080E85B98439ACC
:101BF0005B9A329980645B98439A5B9A32998062CF
:101C00005B98439A5B9A329980615B98439A5B9A9E
:101C1000329988605B98439A5B9A329984605B98AA
:101C2000439A5B9A329982605B98439A5B9A3299A5
:101C300081605B988193D3CF80E0A9CF80E0D6CF3D
:101C4000FA94FFEFFF1609F1439A5B9A86B15B980D
:101C5000439A5B9A86B15B98439A5B9A86B15B988C
:101C6000439A5B9A86B15B98439A5B9A86B15B987C
:101C7000439A5B9A86B15B98439A5B9A86B15B986C
:101C8000439A5B9A86B15B98DBCFC8010E94F1044E
:101C900020E040E467E0C8010E944C0580914D03BC
:101CA000883008F410CF00912603109127030034E8
:101CB000110549F00830110531F0C8010E94C30434
:101CC000882309F400CFE0902403F090250320E45A
:101CD000E216F10451F038E0E316F10431F0C701E7
:101CE0000E94C304882309F4EECEC0912A03809198
:101CF000490390914A0308171907E1F5C23809F41E
:101D0000E2CEC03869F404321940D9F0B09227030A
:101D1000A092260362E084E299E00E94670CD3CE91
:101D2000C33C79F40115110561F01093250300936C
:101D30002403109227031092260360E090E080E0D5
:101D4000ECCF80914603882351F0C7FF0AC08CE690
:101D50008C0F833030F0C33809F0D9CE02C0C13CBB
:101D6000B1F384E293E00E94AC09823009F0ABCE7B
:101D7000C3E8CDCE0034110509F067C0C23C01F5BF
:101D80002091470323FD1AC08432E9E09E07B1F099
:101D9000F0922703E0922603909325038093240377
:101DA0006091880470E090E080E00E94840462E02A
:101DB00080912603909127030E94670CC0E083CE98
:101DC00084E293E00E94AC09D82F80911D03882300
:101DD000A9F18091490390914A039C0153E0369503
:101DE00027955A95E1F7232B19F0F6013197F1F772
:101DF000837099279C01229DC001239D900D329DE7
:101E0000900D11240E94E002809148038823D1F0B4
:101E10008150990B9C01220F331F820F931FF401F5
:101E200002C0EE0FFF1F8A95E2F7CF0164E023E0C6
:101E3000880F991F2A95E1F70E94670CD23009F0AC
:101E400042CE96CF90E080E0F1CF8432994009F401
:101E50003ACE61E0C801B0CF1F920F920FB60F9239
:101E600011242F933F934F935F936F937F938F939F
:101E70009F93AF93BF93EF93FF9380E892E00E940C
:101E80006903FF91EF91BF91AF919F918F917F91E6
:101E90006F915F914F913F912F910F900FBE0F90D7
:101EA0001F9018951F920F920FB60F9211242F9327
:101EB0008F939F93EF93FF93E0919002F0919102A3
:101EC0008081E0919602F091970282FD1BC0908183
:101ED000809199028F5F8F7320919A02821741F04F
:101EE000E0919902F0E0E058FD4F958F80939902C0
:101EF000FF91EF919F918F912F910F900FBE0F90B7
:101F00001F9018958081F4CF1F920F920FB60F92F9
:101F100011242F933F938F939F93AF93BF938091FF
:101F20004F0190915001A0915101B0915201309117
:101F30004E0123E0230F2D3758F50196A11DB11D49
:101F400020934E0180934F0190935001A093510133
:101F5000B09352018091530190915401A091550189
:101F6000B09156010196A11DB11D8093530190932C
:101F70005401A0935501B0935601BF91AF919F9129
:101F80008F913F912F910F900FBE0F901F9018953A
:101F900026E8230F0296A11DB11DD2CFE0E8F2E0A2
:101FA0001382128288EE93E0A0E0B0E084839583F0
:101FB000A683B78385E191E09183808385EC90E0EF
:101FC0009587848784EC90E09787868780EC90E003
:101FD000918B808B81EC90E0938B828B82EC90E0F4
:101FE000958B848B86EC90E0978B868B118E128E6E
:101FF000138E148EEBE8F4E085E090E09283818309
:1020000082E090E09483838380E896E9A8E9B0E0D9
:1020100085839683A783B08780E28287118A128A9C
:1020200085E0848B81E0858B85E090E0A0E0B0E0E6
:10203000838F948FA58FB68F1386ADE1B3E09F9603
:10204000FC93EE939E978EE493E09093E903809344
:10205000E80386EF93E09093F5038093F4038AEE10
:1020600093E098969C938E9397979A961C929A9742
:1020700099961C9299971C920895CF93DF93CDB7B0
:10208000DEB728970FB6F894DEBF0FBECDBF7894A9
:1020900084B5826084BD84B5816084BD85B582606D
:1020A00085BD85B5816085BD80916E00816080931E
:1020B0006E00109281008091810082608093810087
:1020C0008091810081608093810080918000816097
:1020D000809380008091B10084608093B1008091F2
:1020E000B00081608093B00080917A00846080931A
:1020F0007A0080917A00826080937A0080917A00E1
:10210000816080937A0080917A00806880937A0061
:102110001092C10084E00E948902E0919002F09147
:10212000910282E08083E0918C02F0918D02108216
:10213000E0918E02F0918F0280E1808310929802EC
:10214000E0919402F091950286E08083E091920202
:10215000F0919302808180618083E0919202F091FE
:102160009302808188608083E0919202F0919302D3
:10217000808180688083E0919202F0919302808157
:102180008F7D80833A98429842983B9A439A539A1B
:102190005B9880918C0490918D048F3F980709F48F
:1021A0004CC120918E0430918F042F3F320709F4E7
:1021B00044C18217930731F00E94890280918E04F6
:1021C0000E94890260E08BE894E00E94D90461E0FB
:1021D0008BE894E00E94E50465E070E080E090E028
:1021E0000E94840420E04FE564E08BE894E00E94C4
:1021F0004C0585E590E0A0E0B0E08093A2049093C8
:10220000A304A093A404B093A50420E047E066E0F3
:102210008BE894E00E944C056DE18BE894E00E940D
:102220004907D82E0E94F7046DE18BE894E00E94E4
:10223000490791E0D81290E090939C04882359F0CC
:10224000D81202C00E94F70420E040E06DE18BE864
:1022500094E00E944C0510929E0420E040E06CE166
:102260008BE894E00E944C051092A00420E04FE31C
:1022700061E08BE894E00E944C0520E043E062E0DE
:102280008BE894E00E944C0580E28093950481E104
:10229000D82E20E0409195046D2D8BE894E00E94AB
:1022A0004C05D39487E1D812F4CF20E043E063E0FB
:1022B0008BE894E00E944C0585E080939F0420E029
:1022C0004CE465E08BE894E00E944C0520E040E798
:1022D00067E08BE894E00E944C0521E04FEF62EE4E
:1022E0008BE894E00E944C058BE894E00E948A06FB
:1022F00020E04CE060E08BE894E00E944C0560E058
:102300008BE894E00E94490780939B048BE894E05B
:102310000E947B0680919B048E3009F08EC082E67D
:1023200093E00E945A0920E04AE565E08BE894E0DA
:102330000E944C0590E080E00E94C304882309F4C9
:10234000F4C010924A031092490380914B0390917C
:102350004C03FC01218132812F3F3F4F09F4E5C03E
:10236000FC01238134812F3F3F4F09F4DEC020E080
:102370004FE361E00E944C0560E080914B03909137
:102380004C030E94D807C0904B03D0904C036DE1E2
:10239000C6010E944907482F446020E06DE1C60154
:1023A0000E944C056CE1C6010E944907482F4F630B
:1023B00020E06CE1C6010E944C0581E0F601858BAE
:1023C0008091490390914A0366E070E00E941A1BD5
:1023D000482F440F4B5FF0E14F9FA001112445604F
:1023E00020E064E080914B0390914C030E944C05E7
:1023F00089E190E0A0E0B0E080931E0390931F037A
:10240000A0932003B09321038BE490E090932303E7
:10241000809322032091490330914A0340E08FEFDB
:102420009FEFB90168237923672B61F003E0880FE0
:10243000991F0A95E1F74F5FF4CF86E893E00E9479
:102440005A09FFCF409348038095909590938A0452
:102450008093890413E0969587951A95E1F7A90171
:10246000482359235093870440938604009759F0DA
:10247000A3E036952795AA95E1F7B3E09695879561
:10248000BA95E1F7F3CF20938804E6E05E2E882426
:102490008394912CC0904B03D0904C03552009F4A9
:1024A00041C05A94652D90E080E00E943602298355
:1024B0003A834B835C836D837E838F839887A52CBF
:1024C000B12C95012C5F3E4F390151103EC4F601ED
:1024D000448950E0BE016F5F7F4FC6010B960E949A
:1024E000561B81E0F601828BF3016491F601248989
:1024F000AE014F5F5F4FC6010E94960662E0C601C3
:102500000E944907F501E250FF4FE491A40101C088
:10251000440FEA95EAF7482B20E062E0C6010E94EA
:102520004C05B8CFC6010E942C0870E060E089E637
:1025300098E00E94AD166091900470919104809192
:1025400092049091930420E432E44FE050E00E9422
:102550002E1B1F922F9389E493E09F938F930E94E9
:10256000F81665E08BE894E00E944907282F30E0D8
:10257000205A364F3F932F931F928F938DE293E013
:102580009F938F930E94F81666E08BE894E00E9478
:10259000490788720FB6F894DEBF0FBECDBFE2E0E8
:1025A000F0E0803239F021E090E0883009F020E05E
:1025B000E22FF92FEE0FFF1FE95DFC4F85919491FB
:1025C0009F938F9384E193E09F938F930E94F816DB
:1025D00066E08BE894E00E944907E82FF0E0F5956B
:1025E000E795E370F0E0EE0FFF1FE45FFC4F85918D
:1025F00094919F938F9384EF92E09F938F930E9487
:10260000F81666E08BE894E00E944907082F0170F5
:1026100010E0F801EE0FFF1FE651FD4F85919491F8
:102620009F938F938EEC92E09F938F930E94F81666
:1026300061E08BE894E00E944907182F60E08BE886
:1026400094E00E94490780939B040FB6F894DEBF84
:102650000FBECDBF83FD04C0F0E0E0E0112331F0F8
:10266000E2E0F0E082FD02C0E1E0F0E0EE0FFF1FEB
:10267000E853FD4F859194919F938F9387EB92E060
:102680009F938F930E94F81663E08BE894E00E947A
:102690004907837090E002969F938F938AE992E0B6
:1026A0009F938F930E94F816809195041F928F93A9
:1026B00087E792E09F938F930E94F81664E08BE87F
:1026C00094E00E944907182F90E004E095958795C3
:1026D0000A95E1F701964AEF489F9001499F300D16
:1026E00011243F932F9382E592E09F938F930E9452
:1026F000F8161F701F921F938FE292E09F938F93A3
:102700000E94F81668E08BE894E00E944907182FB1
:1027100090E024E0959587952A95E1F79F938F9314
:1027200084E092E09F938F930E94F8161F701F928F
:102730001F938FEC91E09F938F930E94F8166DE1A9
:102740008BE894E00E944907182F24E0829FF00153
:102750001124E470FF27E651FD4F859194919F93DA
:102760008F938FEB91E09F938F930E94F81611FB4C
:10277000EE24E0F8F12CF701EE0FFF1FE651FD4FBC
:10278000859194910FB6F894DEBF0FBECDBF9F9395
:102790008F9387EA91E09F938F930E94F8166CE1E4
:1027A0008BE894E00E9449070F900F900F900F90D4
:1027B00012FBEE27E0F9811101C0E0E0F0E0EE0F3E
:1027C000FF1FE651FD4F859194919F938F9381E96F
:1027D00091E09F938F930E94F81661E08BE894E05C
:1027E0000E9449070F900F900F900F908F3311F0B8
:1027F0008111C1C1E1E0F0E0811102C0F0E0E0E050
:10280000EE0FFF1FE651FD4F859194919F938F939B
:1028100088E791E09F938F930E94F8160F900F9096
:102820000F900F9060E08BE894E00E94490780933E
:102830009B0480FFCCC182E51F928F938BE391E0D4
:102840009F938F930E94F81660E18FE291E00E94BF
:10285000750862E08BE894E00E9449070F900F90A2
:102860000F900F9010E000E0482E512C4CE1642EA8
:1028700041E0742E5AE1E52E51E0F52E65E1C62EB9
:1028800061E0D62E7DE0A72E71E0B72EEAE08E2E15
:10289000E1E09E2EF201002E02C0F595E7950A9424
:1028A000E2F7E170FF273396EE0FFF1FE651FD4F71
:1028B000859194919F938F931F930F937F926F9223
:1028C0000E94F8163AE0232E200E0F900F900F90E2
:1028D0000F900F900F90023008F07BC1622D8BE1BA
:1028E00091E00E9475080F5F1F4F0630110591F6A9
:1028F000EBEEF1E080E081938F5F8039E1F792E3C6
:10290000492E512C612C712C80E892E00E944903E1
:10291000892B51F080E892E00E94270380917F028A
:1029200091E0892780937F020E943D0D0E94B704A9
:1029300000917B0210917C0220917D0230917E02F9
:102940006B017C01C01AD10AE20AF30A97018601E1
:10295000083E13402105310508F46FC000917F0245
:1029600001116BC060937B0270937C0280937D02A7
:1029700090937E028AEB93E00E94D803609102015B
:102980007091030190E080E04AE00E946809C090E5
:102990000001D0900101C60101969093010180933E
:1029A0000001E0900201F0900301C70101969093AD
:1029B00003018093020189E1E816F10408F024C1C3
:1029C00088E08E0D80934D038091490390914A03D6
:1029D0009093250380932403E2E0F0E0F093270333
:1029E000E0932603D0922903C092280310922A0371
:1029F00010922B03E114F10439F0A7016BEE71E0A2
:102A00008CE293E00E94561B60E082E090E00E941E
:102A1000670C082F80910201909103018139910583
:102A200020F0109203011092020185EB93E0011156
:102A300002C08CEA93E00E945A09E090E803F0900B
:102A4000E9034EE4E41643E0F40609F008F486C016
:102A500000915603109157030115110509F47EC02A
:102A6000A80168E573E08BE591E00E94561B86EFB4
:102A70009FEF801B910BE80EF91EF092E903E092A4
:102A8000E8034AE950E0401B510BB801685A7C4FFB
:102A90008EE493E00E945F1B86E291E00E944D0964
:102AA0006801F12CE12C4AE0C701B8010E946809D5
:102AB0008DE391E00E944D090E94B70400915701F7
:102AC000109158012091590130915A01601B710BEE
:102AD000820B930B4AE00E9468098FE391E00E9409
:102AE0004D0983E291E00E944D090E94B704609372
:102AF0005701709358018093590190935A010BE547
:102B000011E0812C912C5401F80161918F0170E04A
:102B100090E080E04AE00E94680989EA93E00E9420
:102B2000D803C501B401A30192010E942E1B613399
:102B300071058105910521F483E291E00E944D0920
:102B4000FFEF8F1A9F0AAF0ABF0A8C149D04AE04D0
:102B5000BF04D0F283E291E00E944D0980E090E052
:102B6000892B09F4D1CE0E945503882309F4CCCED9
:102B70000E940000C9CE51E380FF50E341E381FF92
:102B800040E331E382FF30E321E383FF20E391E37D
:102B900084FF90E385FF19C081E31F925F931F922A
:102BA0004F931F923F931F922F931F929F931F92B9
:102BB0008F9381E591E09F938F930E94F8160FB653
:102BC000F894DEBF0FBECDBF2DCE80E3E6CF84E507
:102BD00033CEFF92EF92DF92CF920E94F816622DD1
:102BE0008BE894E00E9449071F928F93BF92AF92A7
:102BF0000E94F8169F928F920E94F8160FB6F894D2
:102C0000DEBF0FBECDBF6FCEF1E9EF16F10408F0C5
:102C100001CFC70168E170E00E941A1B11E0892B07
:102C200009F410E0C70168E170E00E941A1B160F5A
:102C30008091470384608093470380914B03909178
:102C40004C030E94FF07812C912C88E1282E80E004
:102C500096E9113029F0812F95E9911001C094E98E
:102C6000929CB0011124A701461B570B4931510515
:102C700010F048E150E028E0240F20934D0320910C
:102C8000490330914A03309325032093240322E023
:102C900030E03093270320932603D0922903C0927B
:102CA000280390932A0380932B03E616F70631F04E
:102CB00065517E4F8CE293E00E94561B60E082E0FB
:102CC00090E00E94670C382E811139C062E070E0FC
:102CD00080E090E00E948404839432E0381508F08C
:102CE000B6CF8091470382FF1CC040911E035091D4
:102CF0001F03609120037091210380914B039091F9
:102D00004C030E94A20A382E80914B0390914C03F1
:102D10000E942C0860E080914B0390914C030E942C
:102D2000D807809147038B7F80934703332009F4B2
:102D300071CE01E0112309F46DCE00E06BCE11508D
:102D40009394112371F2812C82CF21E0521609F461
:102D5000CBCBF301649121E0CBCB0F931F93CF93A7
:102D6000DF93009759F46115710541F4F0E0E0E05C
:102D7000CF01DF91CF911F910F9108958B01EC014D
:102D80006EE070E081E090E00E94F718FC01892B72
:102D900069F380E883830115110571F013870287B9
:102DA00081E883838091AA049091AB04892B21F45C
:102DB000F093AB04E093AA042097D1F2D187C087A7
:102DC0008381826083838091AC049091AD04892BD0
:102DD00079F6F093AD04E093AC048091AE04909149
:102DE000AF04892B29F6F093AF04E093AE04C0CF73
:102DF000B0E0A0E0EEEFF6E10C94F11AAE01495F0D
:102E00005F4FDA016D917D91AD010AEA14E0F8019E
:102E100082819381DC0113962C911397286013967D
:102E20002C930E941D17D8011296ED91FC912381DD
:102E3000277F2383E4E00C940D1BABE0B0E0E3E2DA
:102E4000F7E10C94E31A7C013B018A01FC01178233
:102E50001682838181FFC8C1CE0101965C01F70112
:102E60009381F30193FD859193FF81913F01882325
:102E700009F453C1853239F493FD859193FF819113
:102E80003F01853229F4B70190E00E94551AE7CF3F
:102E9000912C212C312CFFE1F31538F08B3211F1FC
:102EA00090F4803209F1833229F137FC3CC020EDE7
:102EB000280F2A3050F536FE20C08AE0989E200D5B
:102EC0001124922E06C08D3291F0803371F76894F0
:102ED00030F8F30193FD859193FF81913F018111BA
:102EE000DACF21C0689431F8689432F8F2CF689450
:102EF00033F8EFCF689434F8ECCFEAE02E9E200D43
:102F00001124222E689435F8E4CF8E3229F436FC51
:102F100004C1689436F8DDCF8C3619F4689437F81C
:102F2000D8CF8836B1F2982F9F7D95549330E0F03A
:102F30008336A1F18337C1F1833509F063C02801DD
:102F4000F2E04F0E511CF801C080D180692D70E075
:102F500036FC02C06FEF7FEFC6010E94381A4C01A9
:102F6000689437F882010AC00C5F1F4FFFE3F983B2
:102F700088248394912C6501E89437F833FE2DC0A2
:102F8000522C8114910471F5552009F468CFB701D2
:102F900080E290E00E94551A5A94F6CFF8018081A1
:102FA00089830E5F1F4FE4CF2801F2E04F0E511CC2
:102FB000F801C080D180692D70E036FC02C06FEF4F
:102FC0007FEFC6010E944A1A4C018201D5CFB7019A
:102FD00080E290E00E94551A2A942814190409F0FE
:102FE000B0F7CECFF60137FC859137FE81916F01A6
:102FF000B70190E00E94551A51105A94F1E08F1ACF
:103000009108BFCF843619F0893609F077C0F801EE
:1030100037FE6BC060817181828193810C5F1F4F8D
:10302000F32DFF763F2E97FF09C090958095709500
:1030300061957F4F8F4F9F4F689437F82AE030E0BB
:10304000A5010E94851AC82ECA188C2C432C36FE66
:103050000CC0E89440F8C91440F434FE05C032FCBA
:1030600003C0F32DFE7E4F2E892C44FE95C0FE0139
:10307000EC0DF11D8081803309F087C0242D297E5D
:10308000422E842D8870582E43FC95C040FE8FC080
:103090009C2C821418F42C0C922C981844FE91C08D
:1030A000B70180E390E00E94551A42FE09C088E70C
:1030B00090E041FE02C088E590E0B7010E94551AF9
:1030C000C91408F48AC0CA94D12C9FEFC91AD90A2E
:1030D000CA0CDB1CF60182916F01B70190E00E94DF
:1030E000551AAC14BD04B1F74FCF60817181072E22
:1030F000000C880B990B0E5F1F4F92CFD32CE894D6
:10310000D4F82AE030E0853739F1232D297FD22EFB
:103110008F3601F148F48835A9F0F701868197814F
:103120002B96E2E10C94FF1A803749F08837A9F713
:10313000D4FE02C06894D2F820E130E00DC068945B
:10314000D4F8F6CF34FE03C0822F8660D82E20E15B
:1031500032E002C028E030E0F801D7FE0FC0608105
:103160007181828193810C5F1F4FA5010E94851A96
:10317000C82ECA183D2CE89437F867CF608171815A
:1031800090E080E00E5F1F4FF0CF42FC02C08394BE
:1031900078CF8394839475CF842D867809F471CF8A
:1031A000F6CFB70180E290E00E94551A8394821412
:1031B000C0F3512C73CF522C5818821408F46ECFE0
:1031C000F8CF842D867809F47BCF8BE241FE80E234
:1031D00047FC8DE2B70190E071CFB70180E390E04A
:1031E0000E94551A9A946CCF8FEF9FEF99CF0F934F
:1031F0001F93CF93DF93869F8001879F100D969F2B
:10320000100D1124C8010E941319EC01009729F038
:10321000A80170E060E00E94431ACE01DF91CF91D7
:103220001F910F9108950F931F93CF93DF938230D7
:10323000910510F482E090E0E091B204F091B304C3
:1032400030E020E0B0E0A0E0309799F4211531059E
:1032500009F44AC0281B390B24303105D8F58A817E
:103260009B816115710589F1FB0193838283FE01C6
:1032700011C0408151810281138148175907E0F044
:103280004817590799F4109761F012960C9312970A
:1032900013961C933296CF01DF91CF911F910F911E
:1032A00008950093B2041093B304F4CF21153105AF
:1032B00051F04217530738F0A901DB019A01BD0113
:1032C000DF01F801C1CFEF01F9CF9093B3048093F0
:1032D000B204CDCFFE01E20FF31F819391932250F0
:1032E000310939832883D7CF2091B0043091B104BC
:1032F000232B41F420910601309107013093B10452
:103300002093B0042091040130910501211531056D
:1033100041F42DB73EB74091080150910901241B9B
:10332000350BE091B004F091B104E217F307A0F47B
:103330002E1B3F0B2817390778F0AC014E5F5F4F0B
:103340002417350748F04E0F5F1F5093B104409388
:10335000B004819391939FCFF0E0E0E09CCFCF93B6
:10336000DF930097E9F0FC01329713821282A0915B
:10337000B204B091B304ED0130E020E01097A1F465
:1033800020813181820F931F2091B0043091B104CC
:103390002817390709F061C0F093B104E093B00435
:1033A000DF91CF910895EA01CE17DF07E8F54A8152
:1033B0005B819E0141155105B1F7E901FB83EA8369
:1033C00049915991C40FD51FEC17FD0761F4808115
:1033D00091810296840F951FE901998388838281E8
:1033E00093819B838A83F0E0E0E012968D919C911B
:1033F00013970097B9F52D913C911197CD01029645
:10340000820F931F2091B0043091B104281739071F
:1034100039F6309751F51092B3041092B204B0937C
:10342000B104A093B004BCCFD383C2834081518147
:10343000840F951FC817D90761F44E5F5F4F8881CD
:103440009981480F591F518340838A819B819383BF
:1034500082832115310509F0B0CFF093B304E093D6
:10346000B2049ECFFD01DC01C0CF13821282D7CF00
:10347000FC010590615070400110D8F7809590953F
:103480008E0F9F1F0895DC0101C06D934150504085
:10349000E0F70895FC016150704001900110D8F7E9
:1034A000809590958E0F9F1F08950F931F93CF9334
:1034B000DF93182F092FEB018B8181FD09C01FEFCE
:1034C0000FEF812F902FDF91CF911F910F910895D2
:1034D00082FF14C02E813F818C819D81281739077E
:1034E0003CF4E881F981CF010196998388831083A8
:1034F0008E819F8101969F838E83E3CFE885F98536
:10350000812F0995892BA1F3DACFFA01AA27283058
:1035100051F1203181F1E8946F936E7F6E5F7F4FA0
:103520008F4F9F4FAF4FB1E03ED0B4E03CD0670F1C
:10353000781F891F9A1FA11D680F791F8A1F911D6F
:10354000A11D6A0F711D811D911DA11D20D009F4BF
:1035500068943F912AE0269F11243019305D319301
:10356000DEF6CF010895462F4770405D4193B3E0EA
:103570000FD0C9F7F6CF462F4F70405D4A3318F091
:10358000495D31FD4052419302D0A9F7EACFB4E042
:10359000A6959795879577956795BA95C9F70097FA
:1035A0006105710508959B01AC010A2E069457959B
:1035B000479537952795BA95C9F7620F731F841FF2
:1035C000951FA01D08952F923F924F925F926F9288
:1035D0007F928F929F92AF92BF92CF92DF92EF92A3
:1035E000FF920F931F93CF93DF93CDB7DEB7CA1B24
:1035F000DB0B0FB6F894DEBF0FBECDBF09942A884F
:10360000398848885F846E847D848C849B84AA84F6
:10361000B984C884DF80EE80FD800C811B81AA8183
:10362000B981CE0FD11D0FB6F894DEBF0FBECDBF4E
:10363000ED010895AA1BBB1B51E107C0AA1FBB1FC8
:10364000A617B70710F0A61BB70B881F991F5A952E
:10365000A9F780959095BC01CD010895A1E21A2E9D
:10366000AA1BBB1BFD010DC0AA1FBB1FEE1FFF1F26
:10367000A217B307E407F50720F0A21BB30BE40B76
:10368000F50B661F771F881F991F1A9469F76095BD
:103690007095809590959B01AC01BD01CF01089577
:1036A000EE0FFF1F0590F491E02D0994FB01DC0162
:1036B00002C001900D9241505040D8F7089568170C
:1036C000790768F4FB01DC01E40FF51FA40FB51FB7
:1036D00002C002900E9241505040D8F708950C94C9
:0636E000561BF894FFCF19
:1036E600010019000000B4048000C33C33CE3EE361
:1036F600EC000000008B03EB021803F303490327D9
:10370600033B030D0A0052656365697665642070A4
:1037160061636B65742C2073697A65200028006DDF
:0E372600732073696E6365206C6173742900F3
:00000001FF
