:100000000C9475000C949D000C949D000C949D0024
:100010000C949D000C949D000C949D000C949D00EC
:100020000C949D000C949D000C949D000C949D00DC
:100030000C949D000C949D000C949D000C949D00CC
:100040000C942D0E0C949D000C94FB0D0C94D50D6E
:100050000C949D000C949D000C949D000C949D00AC
:100060000C94770E0C949D00000000080002010023
:100070000003040700000000000000000A0B0C0D44
:100080000E0F726164696F206861726477617265D6
:10009000206973206E6F7420726573706F6E64696F
:1000A0006E67212100000102030405000000002505
:1000B0000028002B0000000000240027002A000474
:1000C00004040404040404020202020202030303FF
:1000D00003030301020408102040800102040810F9
:1000E0002001020408102000960F11241FBECFEF3C
:1000F000D8E0DEBFCDBF11E0A0E0B1E0E4E0F8E27F
:1001000002C005900D92A635B107D9F724E0A6E507
:10011000B1E001C01D92A035B207E1F710E0C5E7DC
:10012000D0E004C02197FE010E94DF13C437D1073D
:10013000C9F70E9411100C9400140C940000CF9386
:10014000DF93CDB7DEB728970FB6F894DEBF0FBEAA
:10015000CDBFAC019CEC99839A839B839C839D8348
:100160001E821F8218869A01E1E021153105C9F02F
:10017000611103C04115510569F4D901A770BB276E
:10018000AE5FBE4F8C91A1E0B0E0AC0FBD1FAE0FD3
:10019000B11D8C9383E0369527958A95E1F7EF5F43
:1001A000E4CF611102C0452BB9F4E62FF0E0EE5F19
:1001B000FE4F8081898329813A814B815C816D81E9
:1001C0007E818F81988528960FB6F894DEBF0FBE8A
:1001D000CDBFDF91CF910895F0E0EF5FFE4F8081BA
:1001E0008A83E9CF90E0FC01ED52FF4F24918154C6
:1001F0009F4FFC018491882399F090E0880F991F0C
:10020000FC01EB54FF4FA591B491FC01E555FF4F64
:10021000859194918FB7F894EC91E22BEC938FBF7A
:100220000895FC01408151818281823038F081E063
:10023000838380E0518340838283089520912F043B
:1002400030913004B901642375238091EF029091BD
:10025000F0026817790739F040912C0450912D0471
:1002600080912E04E7CFC9018095909563E0880FB7
:10027000991F6A95E1F784239523892B41F083E048
:10028000220F331F8A95E1F727604223532385E02D
:10029000D1CF8230910538F0880F991F880F991FB0
:1002A00005970197F1F70895AF92BF92CF92DF9231
:1002B000EF92FF920F931F93CF93DF936C017B011B
:1002C0008B01040F151FEB015E01AE18BF08C017AC
:1002D000D10759F06991D601ED91FC910190F0811F
:1002E000E02DC6010995892B79F7C501DF91CF91E2
:1002F0001F910F91FF90EF90DF90CF90BF90AF9044
:10030000089508950895FC01538D448D252F30E004
:10031000842F90E0821B930B541710F0CF96089512
:1003200001970895FC01918D828D981761F0A28D3F
:10033000AE0FBF2FB11D5D968C91928D9F5F9F7305
:10034000928F90E008958FEF9FEF0895FC01918DBB
:10035000828D981731F0828DE80FF11D858D90E028
:1003600008958FEF9FEF0895FC01918D228D892FC5
:1003700090E0805C9F4F821B91098F7399270895AD
:100380008AE192E00E94B40121E0892B09F420E087
:10039000822F089580E090E0892B29F00E94C0010F
:1003A00081110C9400000895FC01A48DA80FB92FB1
:1003B000B11DA35ABF4F2C91848D90E001968F738D
:1003C0009927848FA689B7892C93A089B1898C91AC
:1003D000837080648C93938D848D981306C00288FB
:1003E000F389E02D80818F7D80830895EF92FF92C5
:1003F0000F931F93CF93DF93EC0181E0888F9B8D48
:100400008C8D98131AC0E889F989808185FF15C001
:100410009FB7F894EE89FF896083E889F989808124
:100420008370806480839FBF81E090E0DF91CF91F3
:100430001F910F91FF90EF900895F62E0B8D10E015
:100440000F5F1F4F0F731127E02E8C8D8E110CC084
:100450000FB607FCFACFE889F989808185FFF5CFCF
:10046000CE010E94D401F1CFEB8DEC0FFD2FF11DD9
:10047000E35AFF4FF0829FB7F8940B8FEA89FB890C
:1004800080818062CFCFCF93DF93EC01888D88236A
:10049000B9F0AA89BB89E889F9898C9185FD03C0E7
:1004A000808186FD0DC00FB607FCF7CF8C9185FFCC
:1004B000F2CF808185FFEDCFCE010E94D401E9CF3C
:1004C000DF91CF91089590E0FC01E859FF4F24910E
:1004D000FC01ED52FF4F3491FC01E154FF4FE491D8
:1004E000EE23C9F0222339F0233001F1A8F42130A2
:1004F00019F1223029F1F0E0EE0FFF1FE555FF4F13
:10050000A591B4918FB7F894EC91611126C0309504
:100510003E233C938FBF08952730A9F02830C9F0BF
:10052000243049F7809180008F7D03C08091800046
:100530008F7780938000DFCF84B58F7784BDDBCF4A
:1005400084B58F7DFBCF8091B0008F778093B00012
:10055000D2CF8091B0008F7DF9CF3E2BDACF3FB75D
:10056000F8948091EB019091EC01A091ED01B09194
:10057000EE0126B5A89B05C02F3F19F00196A11DDD
:10058000B11D3FBFBA2FA92F982F8827BC01CD01DD
:10059000620F711D811D911D42E0660F771F881F3C
:1005A000991F4A95D1F708958F929F92AF92BF926B
:1005B000CF92DF92EF92FF926B017C010E94AF021B
:1005C0004B015C01C114D104E104F104B9F00E94B3
:1005D000AF02681979098A099B09683E7340810551
:1005E000910580F321E0C21AD108E108F10888EEF4
:1005F000880E83E0981EA11CB11CE4CFFF90EF9001
:10060000DF90CF90BF90AF909F908F9008952FB7BD
:10061000F8946091E7017091E8018091E90190916F
:10062000EA012FBF089520919C01260F3327331F25
:1006300021323105ECF42091C001FC0190E080E012
:10064000243069F082E00895A0919C012191AC01D1
:1006500044585E4FA40FB52FB11D2C9301968617F9
:1006600098F380919C01680F60939C0180E008954D
:1006700081E008951092C00181E08093C201109240
:10068000C10161E082E10E94630261E083E10E94B6
:100690006302E9EBF0E080818E7F808380818D7F33
:1006A000808388E48093B80085E48093BC0008953B
:1006B0000895E091F6018091F501E81730F4F0E03B
:1006C000EA5AFE4F808190E008958FEF9FEF0895E2
:1006D0009091F6018091F5012FEF3FEF981748F4C4
:1006E000E92FF0E0EA5AFE4F208130E09F5F9093BF
:1006F000F601C90108958091F5019091F601891BD9
:10070000990B0895CF93DF93CB01EA01642F0E94E8
:100710001303CE01DF91CF910895CF93DF931F9202
:10072000CDB7DEB7698361E0CE0101960E94130365
:1007300081E090E00F90DF91CF91089590E080E00C
:100740000895FC0121813281838194812817390722
:1007500019F0822F0C9463020895CF93DF93EC017C
:100760008B810E9463028B8D9C8DDF91CF910C94C5
:10077000490161E00C94AD0360E00C94AD0381E3AA
:1007800094E00E94BC0343985B9A329B4BC080E884
:100790005B98439A5B9A329980645B9843985B9A22
:1007A000329980625B98439A5B9A329980615B9838
:1007B00043985B9A329988605B9843985B9A329928
:1007C00084605B9843985B9A329982605B98439807
:1007D0005B9A329981605B9880933A0443985B9A64
:1007E00086B15B98439A5B9A86B15B98439A5B9A11
:1007F00086B15B98439A5B9A86B15B9843985B9A03
:1008000086B15B9843985B9A86B15B98439A5B9AF2
:1008100086B15B98439A5B9A86B15B9881E394E0DA
:100820000C94B90380E0B4CF4F925F926F927F92A5
:100830008F929F92AF92BF92CF92DF92EF92FF92F0
:100840000F931F93CF93DF933C01542E862F80622A
:10085000882E912C5401AA0CAB2CAA1CBB08640155
:1008600046E0D594C7944A95E1F7740154E0F594B5
:10087000E7945A95E1F7840173E0159507957A9509
:10088000E1F7E401D595C795D595C79595948794DB
:100890006170462EC301222309F45FC00E94BC038D
:1008A000AB2809F44AC0439A5B9A329948C080E069
:1008B0005B98C0FE46C0439A5B9A329980645B980D
:1008C000439A5B9A329980625B98E0FE3CC0439AFF
:1008D0005B9A329980615B9800FF37C0439A5B9ABC
:1008E000329988605B98C0FF32C0439A5B9A329914
:1008F00084605B9880FE2DC0439A5B9A3299826037
:100900005B98442041F1439A5B9A329981605B98ED
:10091000F3018187C301DF91CF911F910F91FF9068
:10092000EF90DF90CF90BF90AF909F908F907F908F
:100930006F905F904F900C94B9034398B5CF80E8C7
:10094000B7CF4398B9CF4398C3CF4398C8CF439804
:10095000CDCF4398D2CF4398D7CF0E94BC03AB28CA
:1009600009F471C0439A5B9A32996FC080E05B983A
:10097000C0FE6DC0439A5B9A329980645B98439A3B
:100980005B9A329980625B98E0FE63C0439A5B9AFF
:10099000329980615B9800FF5EC0439A5B9A3299FE
:1009A00088605B98C0FF59C0439A5B9A3299846013
:1009B0005B9880FE54C0439A5B9A329982605B9840
:1009C000442009F44EC0439A5B9A329981605B9847
:1009D000F3018187852D90E09C01220F232F221F98
:1009E000330B232B09F43FC0439A5B9A26B15B98E3
:1009F00086FF3BC0439A5B9A26B15B9885FF37C060
:100A0000439A5B9A26B15B9884FF33C0439A5B9A02
:100A100026B15B9883FF2FC0439A5B9A26B15B98FF
:100A200082FF2BC0439A5B9A96B15B9881FF27C0E7
:100A3000439A5B9A86B15B9850FE23C0439A5B9AB7
:100A400086B15B9867CF43988ECF80E890CF43986C
:100A500092CF43989CCF4398A1CF4398A6CF439879
:100A6000ABCF4398B1CF4398C0CF4398C4CF4398FE
:100A7000C8CF4398CCCF4398D0CF4398D4CF439896
:100A8000D8CF4398DCCFFC01408941FD0AC04260C9
:100A9000408B20E060E00E9414048BE19EE401970B
:100AA000F1F70895CF93DF93EC0121E04FEF61EE72
:100AB0000E9414048985DF91CF910895EF92FF92EF
:100AC0000F931F93CF93DF93EC01062F7A01122F20
:100AD0000E94BC03202F206230E0C901880F892FBB
:100AE000881F990B892B09F473C0439A5B9A32993A
:100AF00071C080E05B9826FF6FC0439A5B9A329981
:100B000080645B98439A5B9A329980625B9824FF79
:100B100065C0439A5B9A329980615B9823FF60C0FD
:100B2000439A5B9A329988605B9822FF5BC0439A34
:100B30005B9A329984605B9821FF56C0439A5B9A16
:100B4000329982605B9800FF51C0439A5B9A329958
:100B500081605B988987F701115008F459C0819131
:100B6000282F30E0220F232F221F330B232B09F4D1
:100B70003FC0439A5B9A96B15B9886FF3BC0439A0D
:100B80005B9A96B15B9885FF37C0439A5B9A96B1A2
:100B90005B9884FF33C0439A5B9A96B15B9883FF5E
:100BA0002FC0439A5B9A96B15B9882FF2BC0439A01
:100BB0005B9A96B15B9881FF27C0439A5B9A96B186
:100BC0005B9880FF23C0439A5B9A86B15B98C4CF41
:100BD00043988CCF80E88ECF439890CF43989ACF9C
:100BE00043989FCF4398A4CF4398A9CF4398AECFC3
:100BF0004398C0CF4398C4CF4398C8CF4398CCCF35
:100C00004398D0CF4398D4CF4398D8CF4398DCCFE4
:100C1000CE01DF91CF911F910F91FF90EF900C9437
:100C2000B9030F931F93CF938C01C62F0E94BC036F
:100C30002C2F30E043985B9A329B6DC080E85B9824
:100C4000A90196E0559547959A95E1F7452B09F44A
:100C500064C0439A5B9A329980645B9825FF5FC0B9
:100C6000439A5B9A329980625B9824FF5AC0439AF8
:100C70005B9A329980615B9823FF55C0439A5B9AD7
:100C8000329988605B9822FF50C0439A5B9A3299F0
:100C900084605B9821FF4BC0439A5B9A32998260D3
:100CA0005B98C0FF46C0439A5B9A329981605B981B
:100CB000F8018187439A5B9A329B3DC0C0E85B98FC
:100CC000439A5B9A3299C0645B98439A5B9A3299D3
:100CD000C0625B98439A5B9A3299C0615B98439A71
:100CE0005B9A3299C8605B98439A5B9A3299C46068
:100CF0005B98439A5B9A3299C2605B98439A5B9A7D
:100D00003299C1605B98C8010E94B9038C2FCF91C2
:100D10001F910F91089580E092CF43989BCF439805
:100D2000A0CF4398A5CF4398AACF4398AFCF43987D
:100D3000B4CF4398B9CFC0E0C2CF1F93CF93DF9316
:100D4000EC01162F61E00E941106112359F0182FB3
:100D5000116020E0412F61E0CE01DF91CF911F9122
:100D60000C941404182F1E7F8B89882391F36DE156
:100D7000CE010E941106482F4D6F20E06DE1CE019B
:100D80000E9414041B8AE5CFCF93DF93EC010E94ED
:100D9000430548894160488B20E060E0CE010E9415
:100DA000140420E040E767E0CE010E94140461E0F3
:100DB000CE010E94A1038A89882351F0AE01455FCC
:100DC0005F4F2C896AE0CE01DF91CF910C945E05D4
:100DD00062E0CE010E941106E5EAF0E0E49121E034
:100DE00030E001C0220FEA95EAF72095422F482310
:100DF00020E062E0CE010E9414041A8ADF91CF91B4
:100E0000089520E0009761F0382F37703150353069
:100E100060F433E0969587953A95E1F72F5FF2CF2E
:100E200081E0253008F080E0089580E0FACFFC01F1
:100E30008FEF9FEF615098F02191822728E030E0FA
:100E4000AC014170552796958795452B21F041E0DF
:100E5000842740EA94272150310991F7EBCF089578
:100E600042E050E06DE271E08AE192E00C945401BE
:100E7000CF93DF93FC0101900020E9F73197AF0198
:100E8000481B590BBC018AE192E00E945401EC011D
:100E90000E9430078C0F9D1FDF91CF9108954F92D4
:100EA0005F926F927F928F929F92AF92BF92CF92FA
:100EB000DF92EF92FF92CF93DF93EC014A015B0147
:100EC0000E9407036B017C01240135018FE5480E68
:100ED000511C611C711C67E1CE010E94110684FD4A
:100EE00042C0898584FF30C020E040E167E0CE0148
:100EF0000E94140460E0CE010E94A10361E0CE01D3
:100F00000E94A1030E9407036C197D098E099F09A5
:100F1000681579058A059B05B8F060E0CE010E944E
:100F2000A103CE010E94520580E0DF91CF91FF9096
:100F3000EF90DF90CF90BF90AF909F908F907F9079
:100F40006F905F904F9008950E9407036C197D0980
:100F50008E099F09461657066806790608F0BBCF2A
:100F600081E08E8BE1CF60E0CE010E94A10381E0A1
:100F7000DCCF8F929F92AF92BF92CF92DF92EF928F
:100F8000FF920F931F93CF93DF93CDB7DEB72897D0
:100F90000FB6F894DEBF0FBECDBF6C01E62EF42E67
:100FA0008091ED0282FD30C00091F1021091F202B9
:100FB00060E0C8010E94A103F8018789908D0E941A
:100FC0004901F8018389882319F0C8010E9452055C
:100FD000F80140894E7F408B20E060E0C8010E940C
:100FE000140462E0C8010E941106E5EAF0E0E49111
:100FF00041E050E001C0440FEA95EAF7482B20E0B9
:1010000062E0C8010E9414048091ED0282FF04C0D6
:101010008091D002843951F561E06F258091F10211
:101020009091F2020E949D060091F1021091F2024D
:101030006E2DC6010E949F0029833A834B835C83F7
:101040006D837E838F839887F8012489AE014F5F7B
:101050005F4F6AE0C8010E945E05F8012489AE0175
:101060004F5F5F4F60E1C8010E945E05E090F102B2
:10107000F090F2020091F3020E9407034B015C0121
:1010800021E04FEF6FEFC7010E941404F701818543
:1010900080FF12C084FD0EC00E9407036819790901
:1010A0008A099B09603671058105910548F381E045
:1010B000F701868B10E0B8C08589811170C0128558
:1010C000101708F4012F101BC7010E94BC03439A9C
:1010D0005B9A32996CC080E05B9843985B9A329936
:1010E00080645B98439A5B9A329980625B984398DC
:1010F0005B9A329980615B9843985B9A32998860D9
:101100005B9843985B9A329984605B9843985B9AAA
:10111000329982605B9843985B9A329981605B98C0
:10112000F7018187EAECF2E0015008F452C08191A6
:10113000282F30E0220F232F221F330B232BC9F13E
:10114000439A5B9A96B15B9886FF35C0439A5B9A47
:1011500096B15B9885FF31C0439A5B9A96B15B98D4
:1011600084FF2DC0439A5B9A96B15B9883FF29C098
:10117000439A5B9A96B15B9882FF25C0439A5B9A2B
:1011800096B15B9881FF21C0439A5B9A96B15B98B8
:1011900080FF1DC0439A5B9A86B15B98C5CF11E072
:1011A000011110E0013208F48FCF00E28DCF80E80A
:1011B00093CF4398C6CF4398CACF4398CECF439896
:1011C000D2CF4398D6CF4398DACF4398DECF439817
:1011D000E2CF115008F143985B9A86B15B9843982F
:1011E0005B9A86B15B9843985B9A86B15B9843980B
:1011F0005B9A86B15B9843985B9A86B15B984398FB
:101200005B9A86B15B9843985B9A86B15B984398EA
:101210005B9A86B15B98DDCFC7010E94B90361E09C
:10122000C7010E94A10311E08091ED0282FD16C06A
:101230004091C4025091C5026091C6027091C702EC
:101240008091F1029091F2020E944F07182F60E006
:101250008091F1029091F2020E949D06812F2896C2
:101260000FB6F894DEBF0FBECDBFDF91CF911F91B7
:101270000F91FF90EF90DF90CF90BF90AF909F9035
:101280008F900895EF92FF920F931F93CF93DF9368
:101290007C010091F30210E0E8012897FC0196819F
:1012A0008CE6890F833008F09BC0943919F588E0EB
:1012B000EAECF2E0A0E9B3E001900D928A95E1F743
:1012C000AE0162ED72E080919A0390919B030E94BF
:1012D000E513D0939903C0939803809197038150AD
:1012E0008093970381E0DF91CF911F910F91FF9041
:1012F000EF9008952091980330919903AE01420F29
:10130000531F4139510520F01092970380E0EBCF35
:10131000809197038823D1F3963919F09781891327
:10132000F5CF4091940350919503F7018481958105
:101330004817590759F780919A0390919B03AE0182
:1013400062ED72E0820F931F0E94E5138091980373
:1013500090919903C80FD91FD0939903C093980314
:10136000F7018681863909F0B8CF109297038781FB
:1013700080939603833809F448C0A0918E03B091FE
:101380008F0384E893E08A1B9B0B8C179D0708F45E
:10139000BDCF8AE0E0E9F3E001900D928A95E1F794
:1013A00080918E0390918F0360919A0370919B03BB
:1013B00040919803509199030A960E94E513209159
:1013C000980330919903265F3F4F80918E0390914F
:1013D0008F03820F931F90938F0380938E0382CF8E
:1013E0009338A9F488E0EAECF2E0A0E9B3E00190D8
:1013F0000D928A95E1F782ED92E090939B038093A2
:101400009A03D0939903C093980382E06CCFA09184
:101410008E03B0918F03CD01845F92408C0F9D1F8E
:101420008B39910508F072CF88E0EAECF2E0019088
:101430000D928A95E1F7E0918E03F0918F03D187A9
:10144000C08780918E0390918F03AE0162ED72E0B0
:101450000A960E94E5130E5F1F4F80918E039091B4
:101460008F03080F191F10938F0300938E033ACF39
:101470002F923F924F925F926F927F928F929F92A4
:10148000AF92BF92CF92DF92EF92FF920F931F9392
:10149000CF93DF930E9407032B013C01C0E078E566
:1014A000272E72E0372E88248394912CFBE7CF2ED1
:1014B000F5E2DF2EA4E2AA2EA9E0BA2E0091F102F5
:1014C0001091F20221E04FEF6FEFC8010E94140467
:1014D000F801818590E0959587958770863090F426
:1014E0000E94070364197509860997090091F102A2
:1014F0001091F202693E734081059105B8F081E0D8
:10150000F801868B8C2FDF91CF911F910F91FF9067
:10151000EF90DF90CF90BF90AF909F908F907F9093
:101520006F905F904F903F902F90089560E6C801B4
:101530000E941106D82F813268F021E04FEF62EE51
:10154000C8010E94140462E070E080E090E00E9414
:10155000D402D0E0D093F3020091F1021091F20294
:10156000F8018589F12C811105C0F284FD1608F47B
:10157000DF2DFD1AC8010E94BC0343985B9A329B81
:1015800056C080E85B98439A5B9A329980645B9876
:10159000439A5B9A329980625B9843985B9A32993E
:1015A00080615B9843985B9A329988605B98439816
:1015B0005B9A329984605B9843985B9A3299826017
:1015C0005B98439A5B9A329981605B98F8018187B6
:1015D000EAECF2E0D15078F1439A5B9A329B29C051
:1015E00080E85B98439A5B9A329980645B98439A4F
:1015F0005B9A329980625B98439A5B9A32998061D8
:101600005B98439A5B9A329988605B98439A5B9A9D
:10161000329984605B98439A5B9A329982605B98B6
:10162000439A5B9A329981605B988193D3CF80E033
:10163000A9CF80E0D6CFFA94FFEFFF1609F1439AC5
:101640005B9A86B15B98439A5B9A86B15B98439AA2
:101650005B9A86B15B98439A5B9A86B15B98439A92
:101660005B9A86B15B98439A5B9A86B15B98439A82
:101670005B9A86B15B98439A5B9A86B15B98DBCFA5
:10168000C8010E94B90320E040E467E0C8010E945D
:1016900014048091F302883008F410CF0091CC023A
:1016A0001091CD020034110549F00830110531F0D8
:1016B000C8010E940107882309F400CFE090CA0204
:1016C000F090CB0220E4E216F10451F038E0E3168A
:1016D000F10431F0C7010E940107882309F4EECE1E
:1016E000C091D0028091EF029091F0020817190783
:1016F000E1F5C23809F4E2CEC03869F40432194089
:10170000D9F0B092CD02A092CC0262E084E299E0DE
:101710000E94270CD3CEC33C79F40115110561F06A
:101720001093CB020093CA021092CD021092CC0209
:1017300060E090E080E0ECCF8091EC02882351F0F3
:10174000C7FF0AC08CE68C0F833030F0C33809F035
:10175000D9CE02C0C13CB1F38AEC92E00E944209AA
:10176000823009F0ABCEC3E8CDCE0034110509F0CC
:1017700067C0C23C01F52091ED0223FD1AC08432FE
:10178000E9E09E07B1F0F092CD02E092CC02909396
:10179000CB028093CA0260912E0470E090E080E05A
:1017A0000E94D40262E08091CC029091CD020E940E
:1017B000270CC0E083CE8AEC92E00E944209D82F29
:1017C0008091C3028823A9F18091EF029091F002E9
:1017D0009C0153E0369527955A95E1F7232B19F094
:1017E000F6013197F1F7837099279C01229DC00182
:1017F000239D900D329D900D11240E9449018091EE
:10180000EE028823D1F08150990B9C01220F331FE7
:10181000820F931FF40102C0EE0FFF1F8A95E2F7BB
:10182000CF0164E023E0880F991F2A95E1F70E9419
:10183000270CD23009F042CE96CF90E080E0F1CF75
:101840008432994009F43ACE61E0C801B0CFCF921A
:10185000DF92EF92FF920F931F93CF93DF9300D00D
:1018600000D01F92CDB7DEB78C01F62E80349105E3
:1018700049F08830910531F00E940107E82E882355
:1018800009F45FC08091D00281548D831C821B8239
:101890001A830983FB82CE0101960E94110181E027
:1018A000F8120EC089819A810817190749F49D81A1
:1018B0009F3730F462E070E080E090E00E94D40254
:1018C0004C816B8189819A810E94B90791E0F9125C
:1018D00047C0882309F446C089819A8108171907EF
:1018E000F9F48D818F37E0F481EC8093D002809100
:1018F000CA029091CB029093CD028093CC029A833E
:101900008983FB821C82CE0101960E94110188E02E
:101910008093F3024C816B8189819A810E94B9077F
:1019200089819A8108171907F9F4EE24E3948091CC
:10193000ED0282FD06C08091F1029091F2020E94B8
:10194000C4068E2D0F900F900F900F900F90DF9187
:10195000CF911F910F91FF90EF90DF90CF9008955E
:101960008111DECFE12CE3CFFF2019F093E0F912D3
:10197000DCCF8D818F37C8F68091ED0282FF1AC0CF
:101980004091C4025091C5026091C6027091C70295
:101990008091F1029091F2020E944F078091ED0236
:1019A0008B7F8093ED0260E08091F1029091F202D2
:1019B0000E949D068091F1029091F2020E94C4065D
:1019C0000E9407036B017C010E94380A813C09F4E4
:1019D000ACCF0E940703AB01BC014C195D096E0935
:1019E0007F098091C8029091C902B0E0A0E08417FD
:1019F0009507A607B70740F7B5CFCF93DF9300D081
:101A000000D000D01F92CDB7DEB72BEB3AEA3A8375
:101A100029838B836C834D8365E0CE0101960E9400
:101A200017079F838E83809119028D3699F447E0C2
:101A300050E0BE016F5F7F4F8AE192E00E94540147
:101A400081E027960FB6F894DEBF0FBECDBFDF91C1
:101A5000CF91089564E670E080E090E00E94D402A7
:101A60008B8190E02091000130910101A9014F5F2D
:101A70005F4F50930101409300014FE04093F30208
:101A80004091EF025091F0025093CB024093CA0272
:101A90009093CD028093CC023093CF022093CE025C
:101AA0001092D00227E0FE013196A2EDB2E0019043
:101AB0000D922A95E1F760E00E94270CC2CFCF93E8
:101AC000DF93FC012381213061F028F0235080E373
:101AD00091E0223010F086E491E0DF91CF910C94F8
:101AE0003807EC01648184E00E9463028A8140E04F
:101AF0006B8190E0DF91CF910C94FD0CCF93DF933D
:101B000085ED8093BC008091780190917901A0913E
:101B10007A01B0917B010796A11DB11D23E0B69516
:101B2000A795979587952A95D1F72091BC0024FD1C
:101B300003C01092C00136C04091780150917901E4
:101B400060917A0170917B01452B462B472B69F3FD
:101B50000097A105B10541F025E32A95F1F70000B2
:101B60000197A109B109E1CF8091770191E09093AC
:101B700076018823B9F0C091B800D091BA00809165
:101B8000BC008A7B8093BC0060E082E10E9463021B
:101B900060E083E10E9463020E943A03D093BA009E
:101BA000C093B800DF91CF9108951F920F920FB6A6
:101BB0000F9211242F933F934F935F936F937F93D3
:101BC0008F939F93AF93BF93EF93FF938AE192E03C
:101BD0000E94D401FF91EF91BF91AF919F918F919E
:101BE0007F916F915F914F913F912F910F900FBE19
:101BF0000F901F9018951F920F920FB60F921124FD
:101C00002F938F939F93EF93FF93E0912A02F0918C
:101C10002B028081E0913002F091310282FD1BC0E5
:101C20009081809133028F5F8F73209134028217ED
:101C300041F0E0913302F0E0E65EFD4F958F809336
:101C40003302FF91EF919F918F912F910F900FBED3
:101C50000F901F9018958081F4CF1F920F920FB6AE
:101C60000F9211242F933F938F939F93AF93BF9322
:101C70008091E7019091E801A091E901B091EA011A
:101C80003091E60123E0230F2D3758F50196A11D71
:101C9000B11D2093E6018093E7019093E801A093A2
:101CA000E901B093EA018091EB019091EC01A091E0
:101CB000ED01B091EE010196A11DB11D8093EB01E4
:101CC0009093EC01A093ED01B093EE01BF91AF9121
:101CD0009F918F913F912F910F900FBE0F901F906A
:101CE000189526E8230F0296A11DB11DD2CF1F9291
:101CF0000F920FB60F9211242F933F934F935F9340
:101D00006F937F938F939F93AF93BF93EF93FF93C3
:101D10008091B900887F803609F44AC0F0F5883296
:101D200009F4A7C018F5803109F49BC0B8F48823E2
:101D300009F4F9C0883009F494C0FF91EF91BF9184
:101D4000AF919F918F917F916F915F914F913F9153
:101D50002F910F900FBE0F901F901895883109F4A6
:101D600088C0803251F78093BF0114C0803409F4D9
:101D70009DC040F48033B9F38833F9F68093BF01F6
:101D800085ECB0C0803509F485C0883509F496C06B
:101D9000883499F60E947E0DD0CF883909F48CC022
:101DA00038F5883729F050F4883611F0803729F655
:101DB00083E08093C0011092BE0157C0883809F4B7
:101DC0007BC0803919F0803809F0B7CF8091BE010F
:101DD000803208F071C0E091BE0181E08E0F8093E7
:101DE000BE018091BB00F0E0E256FE4F80833DC013
:101DF000803B39F0E0F4803A09F479C0883A09F080
:101E00009CCF84E08093C00110929D0110929C01B0
:101E1000E091F101F091F201099580919C0181110D
:101E20000FC081E080939C0110927C0109C0803C2E
:101E300009F4A6CF883C09F4A3CF883B09F07DCFF5
:101E4000E0919D0181E08E0F80939D01F0E0E458C8
:101E5000FE4F80818093BB0090919D0180919C01F9
:101E600029C08091E5018093BB0085EC8093BC0084
:101E700064CF9091E4018091E301981758F5E091C7
:101E8000E40181E08E0F8093E401F0E0ED53FE4F1A
:101E90008081E9CFE091E40181E08E0F8093E4013D
:101EA0008091BB00F0E0ED53FE4F80839091E40100
:101EB0008091E3019817C8F285E8D8CFE091E4015A
:101EC00081E08E0F8093E4018091BB00F0E0ED5340
:101ED000FE4F80838091C20181115CCF81E08093AD
:101EE000C10184EA8093BC001092C00126CF85EC2A
:101EF0008093BC001092C0018091BE01803230F40A
:101F0000E091BE01F0E0E256FE4F10826091BE010A
:101F100070E0E091EF01F091F0018EE991E0099518
:101F20001092BE010ACF1092BF0134CFEAE1F2E075
:101F30001382128288EE93E0A0E0B0E08483958360
:101F4000A683B7832DE031E03183208325EC30E098
:101F50003587248724EC30E03787268720EC30E073
:101F6000318B208B21EC30E0338B228B22EC30E064
:101F7000358B248B26EC30E0378B268B118E128E1E
:101F8000138E148EE7EBF2E0138212828483958322
:101F9000A683B7838FE191E091838083E1E3F4E04E
:101FA00085E090E09283818382E090E09483838354
:101FB00080E896E9A8E9B0E085839683A783B08797
:101FC00080E28287118A128A85E0848B81E0858B8A
:101FD00085E090E0A0E0B0E0838F948FA58FB68F6E
:101FE0001386A3ECB2E09F96FC93EE939E9784EF4A
:101FF00092E090938F0380938E038CE993E090930B
:102000009B0380939A0380E993E098969C938E9328
:1020100097979A961C929A9799961C9299971C92C8
:102020000895CF93DF93CDB7DEB762970FB6F894DC
:10203000DEBF0FBECDBF789484B5826084BD84B509
:10204000816084BD85B5826085BD85B5816085BDB3
:1020500080916E00816080936E001092810080916B
:1020600081008260809381008091810081608093F3
:102070008100809180008160809380008091B10018
:1020800084608093B1008091B00081608093B00043
:1020900080917A00846080937A0080917A008260D7
:1020A00080937A0080917A00816080937A00809199
:1020B0007A00806880937A001092C1000FB6F8947D
:1020C000A895809160008861809360001092600004
:1020D0000FBE84E00E94F20084E00E94F2001092A1
:1020E000F6011092F5011092F4011092F3010E9492
:1020F0003A0381E891E09093F2018093F10182E844
:1021000091E09093F0018093EF01E0912A02F09129
:102110002B0282E08083E0912602F0912702108258
:10212000E0912802F091290280E18083109232022E
:10213000E0912E02F0912F0286E08083E0912C0244
:10214000F0912D02808180618083E0912C02F091DA
:102150002D02808188608083E0912C02F0912D0215
:10216000808180688083E0912C02F0912D02808133
:102170008F7D808383E78093190281E0809318022A
:1021800088E198E20FB6F894A895809360000FBE9E
:102190009093600007E0A5E58A2E912CA12CB12C2C
:1021A000B0E2DB2E15E0C12E3A98429842983B9A55
:1021B000439A539A5B9880913204909133048F3FF5
:1021C000980709F442C120913404309135042F3F1F
:1021D000320709F43AC18217930731F00E94F200E6
:1021E000809134040E94F20060E081E394E00E9458
:1021F000A10361E081E394E00E94AD0365E070E03B
:1022000080E090E00E94D40220E04FE564E081E3AA
:1022100094E00E9414048092480490924904A09291
:102220004A04B0924B0420E047E066E081E394E08A
:102230000E9414046DE181E394E00E941106182FBE
:102240000E94BF036DE181E394E00E94110691E0DA
:10225000181390E090934204882359F0181302C099
:102260000E94BF0320E040E06DE181E394E00E9422
:1022700014041092440420E040E06CE181E394E017
:102280000E9414041092460420E04FE361E081E3D1
:1022900094E00E94140420E043E062E081E394E0D3
:1022A0000E941404D0923B0411E120E040913B04D1
:1022B000612F81E394E00E9414041F5F1731A9F796
:1022C00020E043E063E081E394E00E941404C092C4
:1022D000450420E04CE465E081E394E00E941404AE
:1022E00020E040E767E081E394E00E94140421E0ED
:1022F0004FEF62EE81E394E00E94140481E394E0E6
:102300000E94520520E04CE060E081E394E00E94EE
:10231000140460E081E394E00E941106809341047C
:1023200081E394E00E944305809141048E3009F0DE
:102330008CC020E04AE565E081E394E00E9414044B
:1023400081E090E00E940107882309F40DC181E03B
:1023500090E09093F0028093EF028091F1029091CF
:10236000F202FC01218132812F3F3F4F09F4FCC072
:10237000FC01238134812F3F3F4F09F4F5C020E059
:102380004FE361E00E94140460E08091F1029091BB
:10239000F2020E949D060091F1021091F2026DE19D
:1023A000C8010E941106482F446020E06DE1C80179
:1023B0000E9414046CE1C8010E941106482F4F636B
:1023C00020E06CE1C8010E94140481E0F801858BD3
:1023D0008091EF029091F00266E070E00E94CB13D2
:1023E000482F440F4B5FF0E14F9FA001112445603F
:1023F00020E064E08091F1029091F2020E941404C6
:1024000089E190E0A0E0B0E08093C4029093C5021F
:10241000A093C602B093C7028BE490E09093C902E8
:102420008093C8022091EF023091F00240E08FEFDC
:102430009FEFB90168237923672B21F1E3E0880F2F
:10244000991FEA95E1F74F5FF4CFF2E8EF2EF0E045
:10245000FF2EF7016491662349F08AE192E00E9421
:10246000F601FFEFEF1AFF0A892B99F70E94300758
:1024700068EE73E080E090E00E94D402015009F021
:1024800093CEFFCF4093EE028095909590933004C9
:1024900080932F0473E0969587957A95E1F7A901CB
:1024A0004823592350932D0440932C04009759F04E
:1024B00053E0369527955A95E1F763E09695879511
:1024C0006A95E1F7F3CF20932E0446E0F42EFA94B8
:1024D0000091F1021091F2022FEFF21609F441C0BF
:1024E0006F2D81E090E00E949F002B873C874D87F5
:1024F0005E876F87788B898B9A8BAF2CB12CC50147
:1025000084589F4F6C01F1103EC1F801448950E09E
:10251000BE01655F7F4FC8010B960E94E51381E005
:10252000F801828BF6016491F8012489AE01455FC0
:102530005F4FC8010E945E0562E0C8010E9411065B
:10254000F501EB55FF4FE49141E050E001C0440F2D
:10255000EA95EAF7482B20E062E0C8010E941404E3
:10256000B6CFC8010E94C40686EFC82EDD24DA94D7
:102570009AE9A92EB12C20E0E22E20E0F22E32E1E1
:10258000732E662463940E94380A809119028D3656
:1025900009F0AEC08091100281110CC00E940703A7
:1025A00060930C0270930D0280930E0290930F02C1
:1025B000609210028AE192E00E94B40110910B0235
:1025C000892B09F46BC08AE192E00E949201E12F0D
:1025D000012E000CFF0BE950FE4F80831F5F10930C
:1025E0000B0211163CF70E94070360930C027093D4
:1025F0000D0280930E0290930F021A30D9F680914B
:10260000F7018B3BB9F68091F8018A3A99F68AE096
:10261000E7EFF1E0DE01119601900D928A95E1F766
:102620008B81811107C0CE0101960E945F0D10922F
:102630000B02C0CF90E02091000130910101A9016F
:102640004F5F5F4F50930101409300017092F3027E
:102650004091EF025091F0025093CB024093CA0296
:102660009093CD028093CC023093CF022093CE0280
:102670001092D0022AE0FE013196A2EDB2E0019064
:102680000D922A95E1F760E00E94270C9B81482F6C
:102690006C81892F90E00E94FD0CC9CF1116ACF41B
:1026A0000E94070300910C0210910D0220910E026E
:1026B00030910F02601B710B820B930B653F7140D1
:1026C0008105910510F010920B0264EF71E080E03B
:1026D00090E00E94D402A895E114F10409F453CFCC
:1026E0000E94C001882309F44ECF0E9400004BCF06
:1026F000833759F70E94380A80908E0390908F0399
:1027000024EF821622E0920601F3F8F20091FC0217
:102710001091FD0201151105C1F2A8016EEF72E0E2
:10272000CE0101960E94E513C601801B910B880E15
:10273000991E90928F0380928E03A501401B510B2E
:10274000B80162507D4F84EF92E00E94EE136EEF6D
:10275000600FCE0101960E94170729853A858217DE
:10276000930709F0B2CF89819A818B3B9A4A09F08D
:10277000ACCF9B81809118029813A7CFCE01019610
:102780000E945F0DA2CF81E0F81609F4CBCEF601CE
:10279000649121E0CBCEAA1BBB1B51E107C0AA1F4D
:1027A000BB1FA617B70710F0A61BB70B881F991FF2
:1027B0005A95A9F780959095BC01CD010895EE0F2B
:1027C000FF1F0590F491E02D0994FB01DC0102C08C
:1027D00001900D9241505040D8F70895681779073D
:1027E00068F4FB01DC01E40FF51FA40FB51F02C064
:1027F00002900E9241505040D8F708950C94E51382
:04280000F894FFCF7A
:102804000100C33C33CE3EE3EC00000000F601546B
:102814000183014302B4019201A601000000008D6E
:102824000382039E0358037B03680359030D0A00C4
:1028340046554E435F434F44455F524541445F55BF
:102844004C20636D64006E6F207375636820636F42
:062854006D6D616E640071
:00000001FF
